:020000040800F2
:1000000060540020D901000801110008FD1000080B
:10001000FF10000817030008151200080000000078
:1000200000000000000000000000000005110008B2
:100030001903000800000000031100080711000860
:10004000F3010008F3010008F3010008F3010008C0
:10005000F3010008F3010008F3010008F3010008B0
:10006000F3010008F3010008F3010008F3010008A0
:10007000F3010008F3010008F3010008F301000890
:10008000F3010008F3010008F3010008F301000880
:10009000F3010008F3010008F3010008F301000870
:1000A000F3010008F3010008F3010008F301000860
:1000B000F3010008F3010008F3010008F301000850
:1000C000F3010008F3010008F3010008F301000840
:1000D000F3010008F3010008F3010008F301000830
:1000E000F3010008F3010008F3010008F301000820
:1000F000F3010008F3010008F3010008F301000810
:10010000F3010008F3010008F3010008F3010008FF
:10011000F3010008F3010008F3010008F3010008EF
:10012000F3010008F3010008F3010008F3010008DF
:10013000F30100080000000000000000F3010008C7
:10014000F3010008F3010008F3010008F3010008BF
:10015000F3010008F3010008F3010008F3010008AF
:10016000F3010008F3010008F3010008F30100089F
:10017000F3010008F3010008F3010008000000008B
:1001800000000000F3010008000000000000000073
:10019000F30100080000000000000000F301000867
:1001A000000000000000000000000000F301000853
:1001B000F3010008F3010008F3010008F30100084F
:1001C000F3010008DFF80CD000F068F800480047A1
:1001D0003512000860540020064880470648004752
:1001E000FEE7FEE7FEE7FEE7FEE7FEE7FEE7FEE7E7
:1001F000FEE7FEE7BD110008C50100082DE9F05F2C
:100200000546002092469B46884606468146402485
:100210001BE0284641464746224600F02FF8534649
:100220005A46C01A914110D311461846224600F092
:1002300016F82D1A67EB01084F46224601200021CF
:1002400000F00DF817EB00094E41201EA4F1010447
:10025000DFDC484631462A464346BDE8F09F202A67
:1002600004DB203A00FA02F1002070479140C2F10D
:10027000200320FA03F3194390407047202A04DB3F
:10028000203A21FA02F00021704721FA02F3D0400F
:10029000C2F120029140084319467047064C074DB1
:1002A00006E0E06840F0010394E807009847103446
:1002B000AC42F6D3FFF78AFF84140008A4140008A8
:1002C00070B58C1810F8015B15F0070301D110F818
:1002D000013B2A1106D110F8012B03E010F8016B45
:1002E00001F8016B5B1EF9D12B0705D40023521EC8
:1002F0000DD401F8013BFAE710F8013BCB1A921C30
:1003000003E013F8015B01F8015B521EF9D5A1422D
:10031000D8D3002070BDFEE77047000030B482B033
:100320004FF0000CCDF804C090F83C20012A01BF2A
:10033000022002B030BC7047012280F83C200A68DD
:1003400007230468092A14D9E5680A3A02EB420235
:1003500003FA02F225EA0202E2600B788A680A3B9D
:1003600003EB430302FA03F30268D4682343D36028
:1003700011E0256902EB420203FA02F225EA0202C9
:1003800022610B788A6803EB430302FA03F30268E5
:100390001469234313614A681F23072A16D204688D
:1003A000656B521E02EB820203FA02F225EA020298
:1003B00062630B790A885B1E92B203EB830302FA35
:1003C00003F30268546B234353632DE004680D2A42
:1003D00015D2256BD21F02EB820203FA02F225EA44
:1003E000020222630B790A88DB1F92B203EB8303BC
:1003F00002FA03F30268146B2343136314E0E56A03
:100400000D3A02EB820203FA02F225EA0202E262EC
:100410000B790A880D3B92B203EB830302FA03F3D4
:100420000268D46A2343D362264B0468244A9C4260
:1004300004BF0C68122C03D1546844F48004546047
:1004400004689C4230D1204C0B68A34218BF112B8A
:100450002AD1536843F4000353600968A14223D1B1
:100460001A491B4A0968B1FBF2F101EB810149000D
:100470000191009118D0B1F1004F1BD20029D8BFD3
:10048000002105DD11F0010102D0019A521E0192F6
:10049000009A491C521C914206DA019B891C5B1E82
:1004A0005B1E01939142F8DB80F83CC002B0002053
:1004B00030BC70470199491E0191FCD1F4E700005E
:1004C00000230140002001401200001010500020C5
:1004D00040420F0070B504004FF0000504BF01203A
:1004E00070BD206C002628B9666484F83C60204604
:1004F00000F0A8F8206C10F0100F18BF012503D0F1
:1005000084F83C60284670BD206C20F4885040F090
:10051000020020644848416821F44031416041684C
:100520006268114341602068416821F48071416034
:1005300020684168226941EA0221416020684168DF
:1005400021F04071416020684168A2681143416018
:100550002068816821F40061816020688168E26818
:1005600011438160A06A6FF07061C84220688168A1
:1005700021F0706181602068816808BF21F04051DE
:100580000BD0A26A114381602068816821F040513C
:10059000816020688168E26A114381602068816817
:1005A00021F00201816020688168A26941EA42016C
:1005B0008160206A00282068416808BF21F400613A
:1005C0000ED041F4006141602068416821F460412F
:1005D000416020684168194B626A03EB4232114363
:1005E00041602068C16A21F47001C1622068C16A5B
:1005F000A28B134B03EB02521143C1622068816846
:1006000021F40071816020688168226B41EA4221F7
:1006100081602068816821F4806181602068816840
:10062000626941EA822181606664206C20F00200E8
:1006300040F00100206463E70023014000E0FFFF79
:100640000000F0FF00B5006887B0A0F18041B1F56F
:1006500090311CBF07B000BD00210948026842F478
:1006600080720260006800F48070059003200090A2
:10067000CDE901016946034800F006F807B000BD66
:1006800044380240000402402DE9F84F0022844E15
:10069000DFF810E201274FF0030A4FF00F0800BF08
:1006A0000B6807FA02F42340A34240F0F380D1F82C
:1006B00004C0BCF1020F18BFBCF1120F15D14FEAF4
:1006C000D20C00EB8C05D5F820904FEA427C4FEA23
:1006D000DC6C08FA0CFB29EA0B09D1F810B00BFA14
:1006E0000CFC4CEA090CC5F820C0D0F800904FEA89
:1006F000420C91F804B00AFA0CF50BF0030B29EA4E
:1007000005090BFA0CFB4BEA0909C0F80090D1F877
:100710000490B9F1010F18BFB9F1020F05D0B9F17A
:10072000110F18BFB9F1120F18D1D0F80890D1F8F5
:100730000CB029EA05090BFA0CFB4BEA0909C0F8D1
:100740000890D0F8049029EA040491F80490C9F3C1
:10075000001909FA02F949EA04044460C46824EA69
:1007600005048D6805FA0CFC4CEA040CC0F80CC0BA
:10077000D1F804C01CF0805F7ED0D6F800C04CF4E5
:10078000804CC6F800C0D6F800C00CF4804CCDF800
:1007900000C022F0030C0CF1804404F59834D4F826
:1007A00008584FEA827C4FEA1C7C08FA0CF925EACB
:1007B0000905A0F18049B9F5003930D0A0F1804990
:1007C000B9F5013908BF4FF0010928D0A0F18049DF
:1007D000B9F5023908BF4FF0020920D0A0F18049D5
:1007E000B9F5033908BF4FF0030918D0A0F18049CB
:1007F000B9F5043908BF4FF0040910D0A0F18049C1
:10080000B9F5053908BF4FF0050908D0A0F18049B6
:10081000B9F506390CBF4FF006094FF0070909FA80
:100820000CFC4CEA050CC4F808C8DEF800C04C68A3
:100830002CEA030C14F4803F18BF4CEA030CCEF8EA
:1008400000C0194CD4F800C04D682CEA030C15F414
:10085000003F18BF4CEA030CC4F800C0134CD4F896
:1008600000C04D682CEA030C15F4801F18BF4CEA39
:10087000030CC4F800C000E00CE00D4CD4F800C03C
:100880004D682CEA030C15F4001F18BF4CEA030C4A
:10089000C4F800C0521C102AFFF402AFBDE8F88F64
:1008A00044380240003C0140043C0140083C014007
:1008B0000C3C0140002A08BF090481617047000018
:1008C0000148806870470000045000200248816899
:1008D0000278114481607047045000200B4810B525
:1008E000016841F400710160016841F480610160B8
:1008F000016841F480710160032000F09DF8002040
:1009000000F006F800F024F8002010BD003C024082
:1009100070B50D4D04464FF47A712878B1FBF0F0B4
:100920000A490968B1FBF0F000F0CEFB48B9102C81
:1009300007D200222146501E00F04CF800206C60C7
:1009400070BD012070BD0000045000201050002038
:100950001E4808B5016841F480410160006800F458
:10096000804000901A48016841F0805101600068A1
:1009700000F080500090032000F05EF80022114645
:100980006FF00B0000F026F8002211466FF00A000D
:1009900000F020F8002211466FF0090000F01AF86C
:1009A00000221146501F00F015F800221146101FBA
:1009B00000F010F800221146901E00F00BF8002203
:1009C000BDE808401146501E00F004B8443802400B
:1009D00040380240174B10B41B68C3F30223C3F125
:1009E000070CBCF1040F88BF4FF0040C1C1D072C32
:1009F00034BF0023DB1E012404FA0CFCACF1010C13
:100A00000CEA0101994004FA03F35B1E1A401143FA
:100A100000284FEA0111A1BF00F1E02080F8001486
:100A200010BC704700F00F0000F1E02080F8141DAA
:100A300010BC70470CED00E0074900F007000A68A1
:100A40004FF6FF031A4042EA002040F0FD7040F0EC
:100A500080600860704700000CED00E0F8B51A48AF
:100A6000016841F0805101600068184F00F080502B
:100A7000012600903E64FFF723FF154C0546606891
:100A800010F4803F0AD100BFFFF71AFF401BB0F5FA
:100A90007A7F11D8606810F4803FF5D07E64FFF74C
:100AA0000FFF0546606810F4003F0BD1FFF708FF09
:100AB000401BB0F57A7F01D90320F8BD606810F4BF
:100AC000003FF3D00020F8BD4038024000000E4245
:100AD00000700040002804BF012070472DE9F04756
:100AE0004D4E04460F46306801F0FF0800F00F003D
:100AF000B84206D286F80080306800F00F00B84295
:100B000061D12068454D10F0020F14D010F0040F91
:100B100003D0286840F4E0502860207810F0080FD7
:100B200003D0286840F4604028602868A16820F05D
:100B3000F00008432860207810F0010F37D060687B
:100B40003749012823D0022818BF0328096823D079
:100B500011F0020F37D0296821F0030141EA0000AB
:100B60002860FFF7ADFE81462868616800F00C0040
:100B7000B0EB810F18BF41F2883A18D0FFF7A0FE02
:100B8000A0EB090050450BD90320BDE8F0870968A8
:100B900011F4003FDFD116E011F0007FDBD112E04D
:100BA0002868616800F00C00B0EB810FE6D1306876
:100BB00000F00F00B84209D986F80080306800F0D4
:100BC0000F00B84202D00120BDE8F087207810F075
:100BD000040F05D02868E16820F4E050084328603D
:100BE000207810F0080F06D02868216920F46040B2
:100BF00040EAC100286000F01FF82968094AC1F3E3
:100C00000311515CC840084908600020FFF780FECE
:100C10000020BDE8F0870000003C02400838024098
:100C20000038024074140008105000200148006889
:100C30007047000010500020274810B5006810F0E1
:100C40000C02264808BF10BD2549042A04BF0846E7
:100C500010BD244C082A12D00C2A18BF10BD2268DF
:100C6000236802F03F0213F4800F26D0206800238F
:100C7000C0F38810A0FB0101FFF7C0FA25E022684D
:100C8000236802F03F0213F4800F08D0206800238D
:100C9000C0F38810A0FB0101FFF7B0FA07E021685C
:100CA0000023C1F38811A1FB0001FFF7A7FA216817
:100CB000C1F30141491C49000AE021680023C1F346
:100CC0008811A1FB0001FFF799FA2168C1F30271B5
:100CD000B0FBF1F010BD0000083802400024F40021
:100CE00040787D01043802402DE9F84F0446007831
:100CF000DFF8988310F0010F4FF00C06A8F10405FF
:100D000062D008F10400016801F00C01042912D03E
:100D1000016801F00C01082904D1D8F8001011F481
:100D2000800F08D1006836EA00000DD1D8F8000025
:100D300010F4800F08D0286810F4003F44D0606899
:100D4000002800F0A0813FE06068B0F5803F19D036
:100D5000B0F5A02F28680CBF40F4802020F480302C
:100D6000286028680CBF40F4803020F48020286080
:100D70006068B8B1FFF7A4FD0746286810F4003F8B
:100D800005D021E0286840F480302860F0E7FFF7C4
:100D900097FDC01B642800F23081286810F4003FE2
:100DA000F5D011E0FFF78CFD0746286810F4003FEE
:100DB0000AD000BFFFF784FDC01B642800F21D812C
:100DC000286810F4003FF5D12078B14F10F0020FE1
:100DD0004FD0B048016811F00C0F1ED0016801F02F
:100DE0000C01082904BFD8F8001011F4800F14D0AA
:100DF000006836EA000004BFD8F8000010F4800F45
:100E00000BD0E06818B301203860FFF759FD0646A3
:100E1000286810F0020F09D011E0286810F0020FC6
:100E20001CBFE06801280AD000F02DB9FFF748FD8B
:100E3000801B02287ED8286810F0020FF6D02868A0
:100E4000216920F0F80040EAC100286011E000208C
:100E50003860FFF735FD0646286810F0020F08D00D
:100E6000FFF72EFD801B022864D8286810F0020FBF
:100E7000F6D1207810F0080F2AD08748874E616994
:100E800099B101210160FFF71BFD8146306810F028
:100E9000020F1DD1FFF714FDA0EB0900022849D86D
:100EA000306810F0020FF5D012E000210160FFF76A
:100EB00007FD8146306810F0020F09D0FFF700FDF2
:100EC000A0EB0900022835D8306810F0020FF5D1E8
:100ED000207810F0040F77D071484FF0000B0068B5
:100EE00010F0805F0AD16E48016841F080510160C6
:100EF00000684FF0010B00F080500090694E3068A0
:100F000010F4807F14D1306840F480703060FFF7B7
:100F1000D7FC8146306810F4807F09D1FFF7D0FC00
:100F2000A0EB0900022868D8306810F4807FF5D063
:100F30005D4E00E061E0A06801281BD00528306804
:100F40000CBF40F0040020F00100306030680CBF9E
:100F500040F0010020F00400C6F80000A06841F253
:100F6000883AB8B1FFF7ACFC8146306810F0020F48
:100F700005D021E0306840F001003060EEE7FFF777
:100F80009FFCA0EB0900504537D8306810F0020FE5
:100F9000F5D011E0FFF794FC8146306810F0020FA5
:100FA0000AD000BFFFF78CFCA0EB0900504524D805
:100FB000306810F0020FF5D1BBF1000F04D03848B3
:100FC000016821F080510160A169E9B331480068EE
:100FD00000F00C00082856D04FF0000002293866B7
:100FE0000ED0FFF76DFC0446286810F0007F47D054
:100FF000FFF766FC011B02293ED90320BDE8F88FEC
:10100000FFF75EFC0646286810F0007F09D000BF9D
:10101000FFF756FC801B0228EFD8286810F0007FED
:10102000F6D1D4E907010843A16A204A490802EB36
:101030000141626A41EA8211084394F82C1040EAA7
:10104000016194F8300000E01AE041EA0070C8F84D
:10105000000001203866FFF733FC0446286810F0D2
:10106000007F0DD1FFF72CFC001B0228C5D8286893
:1010700010F0007FF6D003E0286810F0007FB7D1B1
:101080000020BDE8F88F0120BDE8F88F0438024049
:101090000000474208380240800E47427438024040
:1010A0004038024000700040703802400000FFFFEE
:1010B0004FF0E021042808690CBF40F0040020F044
:1010C0000400086170477047411EB1F1807F24BF62
:1010D000012070474FF0E0204161054AF02182F87D
:1010E000141D00218161072101610020704700006B
:1010F0000FE000E010B5FFF7E6FF10BDFEE7FEE7EA
:1011000070477047704710B5FFF7E0FBBDE810402F
:10111000FFF7F0BF30B5274893B00025016841F0D4
:1011200080510160006800F08050129022480168F0
:1011300041F4404101600068022400F440401290F4
:101140000120039010200490009406940820CDE91B
:101150000750B420CDE909040B9468460C94FFF7BE
:10116000C3FD00B1FEE7FFF779FC00B1FEE70F20F9
:10117000CDE90D044FF4A050CDE90F504FF480504D
:10118000119005210DA8FFF7A5FC00B1FEE7FFF7C0
:101190004DFD4FF47A71B0FBF1F0FFF795FF04209D
:1011A000FFF786FF00221146501EFFF713FC13B015
:1011B00030BD000040380240007000400F48016818
:1011C00041F4700101600E48016841F001010160C5
:1011D0000C4A00211160026822F4102222F0807271
:1011E0000260031D084A1A60026822F4802202602D
:1011F00006480160064958060860704788ED00E01F
:101200000038024008380240103000240C380240F8
:1012100008ED00E0FEE702E008C8121F08C1002A3E
:10122000FAD170477047002001E001C1121F002A67
:10123000FBD1704788B001268DF814600F208DF81F
:101240001800FFF74BFBFFF765FF794800250168A1
:1012500041F020010160016801F02001079101685F
:1012600041F001010160016801F00101079101688D
:1012700041F002010160016801F00201079101687B
:1012800041F040010160016801F0400107910168EF
:1012900041F0080101600068664C00F0080007900A
:1012A00001220E212046FFF705FBDFF88C91012279
:1012B0004FF478414846FFF7FDFADFF880A101229C
:1012C000FF215046FFF7F6FA4FF6FF70CDE9000513
:1012D00069465B480295FFF7D7F90E200327CDE951
:1012E0000006CDE9025769462046FFF7CDF941F6E1
:1012F000F070CDE90005694620460295FFF7C4F974
:101300004FF0FF08CDE9008569464E480295FFF78A
:10131000BBF94FF47840CDE90006CDE90265694696
:101320004846FFF7B1F9CDF800800397CDE9016594
:1013300069465046FFF7A8F9444843490160310423
:10134000C0E901150561856141490562C0E90A15D9
:10135000C560C66146610563FFF7BCF800B1FEE7F2
:101360000820CDE90006694602953848FEF7D6FF09
:1013700000B1FEE772B637494AF6AA200860DFF8E6
:10138000D8C0C4F818C0354B4FF6FC7019688142BC
:10139000FCD1344A324810604FF6FD701968814222
:1013A000FCD13148106010601060DFF8C480DFF8B5
:1013B000BC9008F5804044F6FF7A90F8EA1F47F6A3
:1013C000EA7BA1F5803790F8EB1FA8F1020547F6FC
:1013D000EB7EA1F58036216921F0EF0131F47F41E8
:1013E00018BFC4F8189008D0216921F0EF0131F43A
:1013F0007F41F9D1C4F818C0EDE71968C1F30E01B7
:101400002980514505D218F80110A1F580311160ED
:10141000E1E7594508BF1760714508BF16609DF8A0
:10142000141080F805149DF8181080F80414D2E701
:10143000303802400000024000040240000C02402C
:101440000014024000180240002001401450002007
:101450000100000F003000400800FFFF10140240A0
:101460000000FFFF180C02408800FFFF0C00FFFF88
:101470000200002000000000000000000102030440
:1014800006070809A41400080000002014500000FA
:10149000C0020008541A0008145000204C04000038
:1014A000261200082102FF4001FF01FF01FF311455
:1014B0004BABA910155BAEFD1F8E7243AEFF1F8EA6
:1014C0007443E220C210A98F8D1621A2012174104D
:1014D00008E8E00D21D0F874290A18151521D0F676
:1014E000A9808D15219C16219C17219C1A21A21BD5
:1014F00023291B1A211B3BA223301A3430159C3E92
:10150000219C381A42A9FF8D01429C0B429C0C423F
:101510009C0D42AD104248DA08C230E2204415A2C8
:1015200009188E2343A2158E162186158E0243A913
:10153000180D8D0443A2FFFF8E0543A9018D364E81
:10154000192128FA6832159C2121A21D019C222113
:1015500003100ECAD0F728FA9C02219C0321A28016
:101560001EA9F08D0421033A9C0316CAD0F1A220D3
:101570003909280EFA9C81219C82219C8321A20892
:10158000806A7B1385651975596539050011FF4B14
:10159000AB58AE72438EFD1FAD74438DFF1F6B01C0
:1015A000FF01EF100B7818FBC238A2FF1F9A22121E
:1015B000841008A2FF1D9AE220A9158D2121A213F3
:1015C00094A913A00812201E8CA9808D1510112E2D
:1015D0008E1621A2081612C0581720178C9C0521C0
:1015E000A9048D07219C0B219C0C21A9018D2C2184
:1015F000292A04292AC829111A082914A90F8D1685
:1016000021201690A01602202590B9179020409016
:10161000C01616D0F5A97F8D1A10051B0110721B7C
:101620000210432A030A280C0410A9FF8D0510A9F3
:10163000E08D06142A07142A08052A09052A0A3209
:101640002A10052A110F2A12232A130A2A14372ACC
:1016500015372A16142A17142A18052A19052A1AC2
:10166000322A20052A210F2A22232A230A2A243754
:101670002A25372A260F2A27052A28052A29052A56
:101680002A322A30052A310F2A32372A330A2A34DD
:10169000372A35372A360F2A37052A38052A3905D9
:1016A0002F3A10A9208D800A280C8110AD37100A1E
:1016B0000A0A0D81100C1A270C590B6B17100A4BD4
:1016C000071009280A49FF8D8210A9028D83393D30
:1016D0008410AD39392B84100C2A2939490B1A1979
:1016E00039490A4B091009192F3D8510AD3A2F2BA6
:1016F00085100C2A2A2F490B1A1A2F490A4B0A1057
:101700000919CE2A86052A87392A8805268910C212
:1017100020A212BD13A49F16247FE88AC93C0FD0D3
:10172000F21113A09D2A1E10100C01D0F3E220200C
:101730005E90A9808D180C42C2308B48DA5A0BE2B9
:10174000205C2E01FF01C0100B8E02438D04438CE0
:1017500005439C780D43A9228D0143A9018D0B42BD
:101760006017190F19197A181901FF01FF01FF01FC
:10177000D35F04020402B078016AB309180CA9AA65
:10178000CD4021D0FBA9BBCD41073814608C42214C
:10179000AD4021186922D0011A8D41218D40211FB1
:1017A00022A01A600F1A98103AC8111560DAA0F238
:1017B0003F202590682040041360A5280CEBAD83E2
:1017C00010EB095DAA204E900D1A840D6A3D0D1A8A
:1017D000850D6A4D0D1A800D6A6C0D1A820D6A5CBA
:1017E0000D1A810D6A4C0D1A880D6A2C0D1A890D7F
:1017F0006A3C0D1A860D6A0C0D1A870D2A1C0D0203
:10180000FF6001FF01FF01241CFF01FF03F916F92E
:10181000029A810249105ABD0229102112FE7A82D1
:10182000023AFE101A800212FE1A020289104902C0
:101830002910BA0402213A3C08123C1A20027A3CD0
:10184000105A1C16213A240249162930211A9002F6
:1018500012F71291129202FF97014412041205121C
:1018600006DA0710DA0810DA091002490A52035A98
:101870000204A906092410018012073A080412097B
:101880000A330B1001400A430140F202091C10A95F
:101890000E09FD8009AF80E930092E802930091A30
:1018A00080091E90091E3009EE1001FF01FF01FFA3
:1018B00001FF017A0017FFC2308B48DA5A0BE22091
:1018C000AD1042C2302B7AFA68ABE2204001FF0132
:1018D000FF01ED14CBA20222A012BD13C499580936
:1018E00010E8C88AC90CD0F3103A0F107A17103AD2
:1018F0001F107A22103A2F107A2D103A7F101637C7
:10190000D0F362032D82A603EA073B170407158A6A
:1019100004EA4C02FF2401FF01FF019712A513EB1B
:10192000AD1410EB0914AA62032D820501EA111A05
:1019300001113A011112F439111A02113A02114A35
:10194000E3111A03113A03114AD2111A04113A048D
:10195000114AC1111A05113A05114AB0111A06119E
:101960003A0611129F2BEA60121A10123A10124A0C
:101970008D231A11113A11114A7C111A12113A12BF
:10198000114A6B111A13113A13114A5A111A1411F0
:101990003A14114A49111A15113A15114A38111AF7
:1019A00016113A16111A27783A607A1A86143A0CE8
:1019B000144A13251A87113A1C111A022514DAA0A9
:1019C000F220198C4221AD4021186922D0011A8DD4
:1019D00041218D4021CD4021D0FBA01A680F1A98DB
:1019E000103AC811C90E02FF6001FF01FF01FF019B
:1019F000FF01FF01FF01FF01FF01FF01FF01FF01E7
:101A0000FF01FF01FF01FF01FF01FF01FF01FF01D6
:101A1000FF01FF01FF01FF01FF01FF01CC137F7FE9
:101A200012010C13FFE0010B9921413D2003FC0240
:101A30001101FF01FF01FF01FF01FF01FF01FF0194
:101A4000FF01FF01FF01FF01BF02161E32018210DC
:041A50001324F40067
:04000005080001C529
:00000001FF
