:020000040800F2
:10000000C0550020D9010008771A0008FD17000824
:10001000751A0008C9040008B51B0008000000009C
:100020000000000000000000000000007B1A000833
:10003000C305000800000000791A00087D1A0008B6
:10004000F3010008F3010008F3010008F3010008C0
:10005000F3010008F3010008F3010008F3010008B0
:10006000F3010008F3010008F3010008F3010008A0
:10007000F3010008F3010008F3010008F301000890
:10008000F3010008F3010008F3010008F301000880
:10009000F3010008F3010008F3010008F301000870
:1000A000F3010008F3010008F3010008F301000860
:1000B000F3010008F3010008F3010008F301000850
:1000C000F3010008F3010008F3010008F301000840
:1000D000F3010008F3010008F3010008F301000830
:1000E000F3010008F3010008F3010008F301000820
:1000F000F3010008F3010008F3010008F301000810
:10010000F3010008F3010008F3010008F3010008FF
:10011000F3010008F3010008F3010008F3010008EF
:10012000CD040008F3010008F3010008F301000802
:10013000F30100080000000000000000F3010008C7
:10014000F3010008F3010008F3010008F3010008BF
:10015000F3010008F3010008F3010008F3010008AF
:10016000F3010008F3010008F3010008F30100089F
:10017000F3010008F3010008F3010008000000008B
:1001800000000000F3010008000000000000000073
:10019000F30100080000000000000000F301000867
:1001A000000000000000000000000000F301000853
:1001B000F3010008F3010008F3010008F30100084F
:1001C000F3010008DFF80CD000F068F800480047A1
:1001D000D91B0008C0550020064880470648004744
:1001E000FEE7FEE7FEE7FEE7FEE7FEE7FEE7FEE7E7
:1001F000FEE7FEE75D1B0008C50100082DE9F05F82
:100200000546002092469B46884606468146402485
:100210001BE0284641464746224600F02FF8534649
:100220005A46C01A914110D311461846224600F092
:1002300016F82D1A67EB01084F46224601200021CF
:1002400000F00DF817EB00094E41201EA4F1010447
:10025000DFDC484631462A464346BDE8F09F202A67
:1002600004DB203A00FA02F1002070479140C2F10D
:10027000200320FA03F3194390407047202A04DB3F
:10028000203A21FA02F00021704721FA02F3D0400F
:10029000C2F120029140084319467047064C074DB1
:1002A00006E0E06840F0010394E807009847103446
:1002B000AC42F6D3FFF78AFF4C2000086C20000800
:1002C00070B58C1810F8015B15F0070301D110F818
:1002D000013B2A1106D110F8012B03E010F8016B45
:1002E00001F8016B5B1EF9D12B0705D40023521EC8
:1002F0000DD401F8013BFAE710F8013BCB1A921C30
:1003000003E013F8015B01F8015B521EF9D5A1422D
:10031000D8D3002070BD10B50246906B016C11F06F
:10032000500F05D0806BC16CBDE8104010460847E7
:10033000016C41F40071016401688A6812F0405F49
:1003400019D18269BAB9CA6A12F4700F03D08A68E7
:1003500012F4806F0FD14A6822F020024A60016CCB
:1003600021F480710164016C11F4805F03D1016C90
:1003700041F00101016400F0E3F910BD10B5806B9C
:1003800040210164416C41F00401416400F0DAF95C
:1003900010BD10B5806B00F0D4F910BD49494A6812
:1003A00022F440324A604A6843681A434A6001684E
:1003B0004A6822F480724A6001684A68036942EA26
:1003C00003224A6001684A6822F040724A6001686C
:1003D0004A6883681A434A6001688A6822F40062A6
:1003E0008A6001688A68C3681A438A60816A6FF00C
:1003F0007062D14214D001688A6822F070628A600B
:1004000001688A68836A1A438A6001688A6822F0F0
:1004100040528A6001688A68C36A1A438A6009E0A8
:1004200001688A6822F070628A6001688A6822F036
:1004300040528A6001688A6822F002028A6001687C
:100440008A68836942EA43028A60016A89B1016865
:100450004A6842F400624A6001684A6822F46042D5
:100460004A6001684A68436A5B1E42EA43324A6056
:1004700004E001684A6822F400624A600168CA6ABE
:1004800022F47002CA620168CA6A838B5B1E42EA68
:100490000352CA6201688A6822F400728A600168A5
:1004A0008A68036B42EA43228A6001688A6822F400
:1004B00080628A6001688A68406942EA80208860B8
:1004C0007047000000230140FEE70000014800F0F3
:1004D00055BA00005C51002001680A4BCAB2103ABC
:1004E000A3FB02321209084B9B5CC365032A04D9A3
:1004F0006FF30901091D816502E06FF30901816550
:10050000806D7047ABAAAAAA3220000801460020DD
:100510008A6A8B69002B0FD0B3F5005F1DD08AB3B8
:10052000012A30D0022A2ED0032A04D1C96A11F040
:10053000807F00D0012070471AB1012A07D0022A1B
:10054000F9D1C96A11F0807FF5D001207047C96ADE
:10055000B1F1C07FFAD1012070475AB1012A0BD006
:10056000022A07D0032AF7D1C96AB1F1C07FF3D1BB
:100570000120704701207047C96A11F0807FFAD0CE
:1005800001207047FFE70120704710B4D0F800C089
:10059000DCF8004024F48024CCF80040D0F800C0FF
:1005A000CCF804308368402B05D00368996000685C
:1005B000C26010BC704703689A600068C16010BCDC
:1005C0007047704738B44FF0000CCDF800C090F879
:1005D0003C20012A1BD0012280F83C200A68072415
:1005E000092A17D90368DD680A3A02EB420204FAC5
:1005F00002F225EA0202DA600A788B680A3A02EB14
:10060000420293400268D4682343D36014E038BCAC
:100610000220704703681D6902EB420204FA02F2ED
:1006200025EA02021A610A788B6802EB42029340C3
:1006300002681469234313614A681F24072A15D2EC
:1006400003685D6B521E02EB820204FA02F225EA95
:1006500002025A630A8893B20A79521E02EB82029E
:1006600093400268546B234353632CE00D2A15D248
:1006700003681D6BD21F02EB820204FA02F225EA24
:1006800002021A630A8893B20A79D21F02EB82022D
:1006900093400268146B2343136314E00368DD6A1C
:1006A0000D3A02EB820204FA02F225EA0202DA6251
:1006B0000A8893B20A790D3A02EB820293400268EB
:1006C000D46A2343D362194A194B04689C4206D169
:1006D0000C68122C03D1546844F4800454600468FC
:1006E0009C421DD1134C0B68A34201D0112B17D192
:1006F000536843F4000353600968A14210D10E49C6
:100700000E4A0968B1FBF2F101EB81014900009149
:10071000009929B10099491E009100990029F9D149
:1007200080F83CC038BC0020704700000023014026
:100730000020014012000010E050002040420F0055
:1007400070477047704770B504460025002C03D0F1
:10075000206C002610B107E0012070BD666484F8AB
:100760003C60204600F01AF8206C10F0100F04D006
:10077000012584F83C60284670BD206C20F4885028
:1007800040F0020020642046FFF708FE6664206CFB
:1007900020F0020040F001002064EAE770B586B066
:1007A00005462868A0F18041B1F5903133D100268B
:1007B0001A48016841F480710160006800F480709B
:1007C00000903F20019003240294039601A914484D
:1007D00000F07EFA01940294039601A9114800F0FA
:1007E00077FA124C104820606660A660E66000153B
:1007F0002061800060618000A0618011E06126625C
:100800006662204600F0B0F918B1C72108A001F0D7
:10081000D2F9AC63A56306B070BD00004438024055
:100820000008024000040240106402405C510020B5
:100830002E2E2F5372632F6164632E63000000001D
:1008400038B504460023009394F83C00012809D0F1
:10085000012084F83C002068D0F808C01CF0010F8B
:1008600002D018E0022038BDD0F808C04CF0010CCE
:10087000C0F808C03B48DFF8F0C00068B0FBFCF0EF
:1008800000EB40000090009828B10098401E0090B6
:1008900000980028F9D12068D0F808C01CF0010F9A
:1008A0005DD0D4F840C02CF0010C2CF4C06C4CF49A
:1008B000807CC4F840C0406810F4806F05D0206C84
:1008C00020F4005040F480502064206C10F4805FCD
:1008D00004D0606C20F00600606400E0636484F87B
:1008E0003C30224DA36B2248D863A36B2148186487
:1008F000A36B2148D86423686FF022001860206839
:10090000436843F0806343602068836843F48073E6
:1009100083602068134600F14C0C0A466146A06BC8
:1009200000F098F9686810F01F0F0AD02068A0F155
:100930008041B1F5903112D1816811F0405F0AD049
:100940000DE02068816811F0405F08D1816841F0B6
:100950008041816003E0816841F080418160002036
:1009600038BD0000E050002040420F00002301404D
:1009700017030008930300087D0300082DE9F843DE
:1009800004464FF00008CDF8008076484FF4165129
:100990000068B0FBF1F7A56D2E6894F85C000821A3
:1009A00001FA00F0304211D02068026812F0040F02
:1009B0000CD0026822F00402026094F85C0001FA94
:1009C00000F0A860606D40F00100606594F85C0084
:1009D0004FF0010909FA00F0304209D02168496955
:1009E00011F0800F04D0A860606D40F002006065D7
:1009F00094F85C1004208840304209D021680968CE
:100A000011F0020F04D0A860606D40F00400606532
:100A100094F85C1010208840304224D02168096886
:100A200011F0080F1FD0A8602068016811F4802F12
:100A30000DD0006810F4002F04D0A16C99B12046AD
:100A4000884710E0216C71B1204688470BE00168AF
:100A500011F4807F03D1016821F008010160216C4D
:100A600009B12046884794F85C1020208840304225
:100A700051D02168096811F0100F4CD0A86094F88B
:100A8000350005280DD02068016811F4802F32D080
:100A9000006810F4002F29D0E16B59B32046884735
:100AA00039E02068016821F0160101602068416981
:100AB00021F080014161206C08B9A06C20B1206850
:100AC000016821F00801016094F85C003F2101FAFF
:100AD00000F0A86084F8348084F83590216D0029F6
:100AE0003ED001B02046BDE8F0430847616C09B133
:100AF000204688470FE0016811F4807F07D1016824
:100B000021F01001016084F8348084F83590E16BA5
:100B100009B120468847606D002821D0606D10F033
:100B2000010F15D0052084F835002068016821F0F8
:100B3000010101600098401C0090B84204D8206870
:100B4000006810F0010FF5D184F8348084F83590F6
:100B5000E16C002904D001B02046BDE8F04308470D
:100B6000BDE8F883E05000202DE9F041044600F094
:100B7000BDF90546DCB1002684F83460022084F813
:100B800035002068016821F00101016020680068DB
:100B900010F0010F13D000F0A9F9401B052809D966
:100BA00020206065032084F83500BDE8F081012035
:100BB000BDE8F0812068006810F0010FEBD12168DA
:100BC0000868234A1040A3686268D4F810C01A432A
:100BD000E36843EA0C031A4363691A43A3691A439F
:100BE000E3691A43236A1A431043626A042A03D151
:100BF000236BE26A1A43104308602068406920F0C2
:100C00000701606A40EA0105012704280ED1A06AA5
:100C10000543E06A50B12046FFF778FC30B1402030
:100C2000606584F835700120BDE8F0812068456179
:100C30002046FFF751FC94F85C103F2202FA01F1C4
:100C40008160666584F835700020BDE8F0810000A1
:100C50003F8010F070B504460025A66D94F834006E
:100C600001280DD0012084F8340094F835C000200C
:100C7000BCF1010F06D084F834000225284670BD6F
:100C8000022070BD4FF0020C84F835C0606520462C
:100C9000FFF77BFC94F85C003F2101FA00F0B060A4
:100CA0002068016841F0160101602068416941F047
:100CB00080014161206C20B12068016841F0080189
:100CC00001602068016841F001010160D6E7000081
:100CD0002DE9F84F0022DFF8F081DFF8F091DFF81E
:100CE000F0A14FF0030E0F27012303FA02F50B6862
:100CF0002B40AB427DD1D1F804C0BCF1020F02D031
:100D0000BCF1120F12D14FEAD20C00EB8C0CDCF8C4
:100D100020605407E40E07FA04FB26EA0B06D1F81C
:100D200010B00BFA04F43443CCF8204006684FEAC4
:100D3000420C0EFA0CF4A64391F804B00BF0030B2E
:100D40000BFA0CFB4BEA060606604E68012E05D036
:100D5000022E03D0112E01D0122E11D18668A64387
:100D6000D1F80CB00BFA0CFB4BEA0606866046681D
:100D700026EA05050E79C6F3001696403543456010
:100D8000C56825EA04048D6805FA0CFC4CEA040CDD
:100D9000C0F80CC0D1F804C01CF0805F78D0D8F83F
:100DA00000C04CF4804CC8F800C0D8F800C00CF467
:100DB000804CCDF800C022F0030C0CF1804505F505
:100DC0009835D5F808C89407240F07FA04F62CEADA
:100DD0000606A0F1804CBCF5003C5FD0A0F1804C31
:100DE000BCF5013C5DD0A0F1804CBCF5023C5BD071
:100DF00000E04DE0A0F1804CBCF5033C57D0A0F1E1
:100E0000804CBCF5043C55D0A0F1804CBCF5053CB1
:100E100053D0A0F1804CBCF5063C51D04FF0070CEC
:100E20000CFA04FC4CEA060CC5F808C8D9F800C056
:100E30002CEA030C4C6814F4803F01D04CEA030CFC
:100E4000C9F800C0234CD4F800C02CEA030C4D684C
:100E500015F4003F01D04CEA030CC4F800C01E4C4E
:100E6000D4F800C02CEA030C4D6815F4801F01D0A3
:100E70004CEA030CC4F800C0DAF800C02CEA030CFA
:100E80004C6814F4001F01D04CEA030CCAF800C0EF
:100E9000521C102AFFF428AFBDE8F88F4FF0000C69
:100EA000BEE74FF0010CBBE74FF0020CB8E74FF084
:100EB000030CB5E74FF0040CB2E74FF0050CAFE7B9
:100EC0004FF0060CACE7000044380240003C014003
:100ED0000C3C0140043C0140083C0140002A01D088
:100EE0008161704709048161704700000148806892
:100EF00070470000D45000200248816802781144F5
:100F000081607047D450002010B50B48016841F44F
:100F100000710160016841F480610160016841F481
:100F200080710160032000F0ADF8002000F006F8A9
:100F300000F026F8002010BD003C024070B50446C9
:100F40000D4D4FF47A712878B1FBF0F00B49096828
:100F5000B1FBF0F000F03AFC08B1012070BD102C9C
:100F600007D200222146501E00F058F86C60002085
:100F700070BD012070BD0000D4500020E050002062
:100F800008B51E48016841F480410160006800F422
:100F9000804000901A48016841F08051016000686B
:100FA00000F080500090032000F06CF80022114601
:100FB0006FF00B0000F032F8002211466FF00A00CB
:100FC00000F02CF8002211466FF0090000F026F81E
:100FD00000221146501F00F021F800221146101F78
:100FE00000F01CF800221146901E00F017F80022B5
:100FF000BDE808401146501E00F010B844380240C9
:101000004038024000F01F01012202FA01F14009BC
:10101000800000F1E020C0F80011704710B4184BB8
:101020001B68C3F30223C3F1070CBCF1040F01D901
:101030004FF0040C1C1D072C01D2002300E0DB1E26
:10104000012404FA0CFCACF1010C0CEA01019940FA
:1010500004FA03F35B1E1A401143002808DA00F07B
:101060000F0000F1E020090180F8141D10BC70474A
:1010700000F1E020090180F8001410BC7047000066
:101080000CED00E000F00700064A11684FF6FF0380
:10109000194041EA002040F0FD7040F0806010608F
:1010A000704700000CED00E0F8B51B48016841F006
:1010B00080510160006800F080500090174F0126B9
:1010C0003E64FFF713FF0546154C606810F4803F3F
:1010D0000BD1FFF70BFF401BB0F57A7F01D903203E
:1010E000F8BD606810F4803FF3D07E64FFF7FEFE29
:1010F0000546606810F4003F0BD1FFF7F7FE401B78
:10110000B0F57A7F01D90320F8BD606810F4003F84
:10111000F3D00020F8BD00004038024000000E422D
:10112000007000402DE9F04704460D46002C13D016
:10113000DFF85091D9F80000EFB200F00F00A8429C
:101140000DD289F80070D9F8000000F00F00A84215
:1011500005D00120BDE8F0870120BDE8F0872068B8
:10116000494E10F0020F14D010F0040F03D0306875
:1011700040F4E0503060207810F0080F03D0306861
:1011800040F4604030603068A16820F0F00008430F
:101190003060207810F0010F3ED060683B49012894
:1011A00008D002280DD003280BD0096811F0020FD7
:1011B00028D00AE0096811F4003F06D10120BDE8FB
:1011C000F087096811F0007F19D0316821F0030120
:1011D00008433060FFF78AFE80463068616800F09F
:1011E0000C00B0EB810F17D041F2883AFFF77EFE7A
:1011F000A0EB0800504508D90320BDE8F087012086
:10120000BDE8F0870120BDE8F0873068616800F034
:101210000C00B0EB810FE9D1D9F8000000F00F000D
:10122000A8420AD989F80070D9F8000000F00F0030
:10123000A84202D00120BDE8F087207810F0040F0A
:1012400005D03068E16820F4E05008433060207831
:1012500010F0080F06D03068216920F4604040EAA1
:10126000C100306000F01EF83168094AC1F3031173
:10127000515CC840074908600020FFF75FFE00206E
:10128000BDE8F087003C02400838024000380240C8
:101290003A200008E0500020014800687047000034
:1012A000E050002010B52748006810F00C012648D7
:1012B00018D0264B042914D0254C082913D00C290A
:1012C00010D1216801F03F02216811F4800F2AD06B
:1012D0002068C0F38810A0FB03010023FEF78EFFF7
:1012E00029E0184610BD216801F03F02216811F481
:1012F000800F08D02068C0F38810A0FB03010023F2
:10130000FEF77CFF07E021680023C1F38811A1FBF1
:101310000001FEF773FF2168C1F30141491C490038
:10132000B0FBF1F010BD21680023C1F38811A1FBCF
:101330000001FEF763FF2168C1F30271B0FBF1F019
:1013400010BD0000083802400024F40040787D0100
:10135000043802402DE9F84F04464FF00C0820787D
:1013600010F0010FFE4EA6F1040567D0301D016894
:1013700001F00C01042910D0016801F00C010829CA
:1013800003D1316811F4800F07D1006838EA0000FA
:101390000DD1306810F4800F09D0286810F4003F98
:1013A0004CD06068002849D10120BDE8F88F606802
:1013B000B0F5803F14D0B0F5A02F16D0286820F4E7
:1013C00080302860286820F480202860606810B38E
:1013D000FFF78CFD0746286810F4003F0ED02DE083
:1013E000286840F480302860F0E7286840F48020C6
:1013F0002860286840F480302860E7E7FFF776FD32
:10140000C01B642802D90320BDE8F88F286810F4B7
:10141000003FF3D012E0FFF769FD0746286810F49B
:10142000003F0BD0FFF762FDC01B642802D90320E8
:10143000BDE8F88F286810F4003FF3D12078C94F39
:1014400010F0020F4FF000095FD0C748016811F09B
:101450000C0F1CD0016801F00C01082903D1316880
:1014600011F4800F13D0006838EA000003D130680F
:1014700010F4800F0BD0E06880B301203860FFF7D4
:1014800035FD8046286810F0020F12D01EE0286853
:1014900010F0020F05D0E068012802D00120BDE85D
:1014A000F88F2868216920F0F80040EAC100286020
:1014B0002BE0FFF71BFDA0EB0800022802D9032058
:1014C000BDE8F88F286810F0020FF2D02868216973
:1014D00020F0F80040EAC100286016E0FFE7C7F8F6
:1014E0000090FFF703FD8046286810F0020F0CD033
:1014F000FFF7FCFCA0EB0800022802D90320BDE89E
:10150000F88F286810F0020FF2D1207810F0080F41
:1015100035D09648DFF858A26169C1B10121016058
:10152000FFF7E4FC8046DAF8000010F0020F26D145
:10153000FFF7DCFCA0EB0800022802D90320BDE87D
:10154000F88FDAF8000010F0020FF1D017E0C0F8C1
:101550000090FFF7CBFC8046DAF8000010F0020F95
:101560000DD0FFF7C3FCA0EB0800022802D903202E
:10157000BDE8F88FDAF8000010F0020FF1D1207802
:1015800010F0040F71D04FF000087A48006810F096
:10159000805F0AD17748016841F08051016000689E
:1015A00000F0805000904FF00108DFF8CCB1DBF87C
:1015B000000010F4807F1BD1DBF8000040F4807045
:1015C000CBF80000FFF792FC8246DBF8000010F435
:1015D000807F0DD1FFF78AFCA0EB0A00022802D918
:1015E0000320BDE8F88FDBF8000010F4807FF1D015
:1015F000A068DFF888B1012818D005281DD0DBF8D5
:10160000000020F00100CBF80000DBF8000020F023
:101610000400CBF80000A06840B3FFF767FC8246E7
:10162000DBF8000010F0020F14D03EE0DBF8000001
:1016300040F00100CBF80000EDE7DBF8000040F0DF
:101640000400CBF80000DBF8000040F00100CBF80C
:101650000000E0E7FFF74AFCA0EB0A0141F2883006
:10166000814204D90320BDE8F88F26E005E0DBF8CD
:10167000000010F0020FEDD017E0FFF737FC8246B4
:10168000DBF8000010F0020F0FD0FFF72FFCA0EBEB
:101690000A0141F28830814202D90320BDE8F88F67
:1016A000DBF8000010F0020FEFD1B8F1010F04D108
:1016B0003048016821F080510160A069F0B32A49E7
:1016C000096801F00C0108296ED0022810D0C7F873
:1016D0006090FFF70BFC0446286810F0007F60D094
:1016E000FFF704FC001B022857D90320BDE8F88F40
:1016F000C7F86090FFF7FAFB8046286810F0007F7B
:101700000CD0FFF7F3FBA0EB0800022802D903205E
:10171000BDE8F88F286810F0007FF2D1216AE069F7
:10172000A26A0843616A4FF0FF33890103EB52025A
:1017300041EA0241084394F82C1000E031E040EA0D
:10174000016094F8301040EA017030600120386682
:10175000FFF7CCFB0446286810F0007F21D10FE092
:10176000043802400000474208380240800E4742D9
:101770007438024040380240007000407038024027
:10178000FFF7B4FB001B022802D90320BDE8F88F45
:10179000286810F0007FE2D003E0286810F0007F96
:1017A0009ED10020BDE8F88F0120BDE8F88F4FF0F2
:1017B000E021042804D0086920F004000861704783
:1017C000086940F00400086170477047401EB0F19E
:1017D000807F01D3012070474FF0E0214861044A27
:1017E000F0201070002088610720086100207047F9
:1017F00023ED00E010B5FFF7E8FF10BDFEE70000A5
:1018000030B585B04248414901604FF480314160B4
:10181000002181600124046184610162C1623D4A4A
:101820008262C1600825C56104634461FEF78BFFD5
:1018300018B14A2138A000F0BEF9009501940724A0
:10184000029469463248FEF7BDFE18B1542132A019
:1018500000F0B1F9092000900220019069462C485F
:10186000FEF7B0FE18B15D212BA000F0A4F90A200C
:1018700000900320019069462548FEF7A3FE18B1A9
:10188000662125A000F097F90B200090042001901C
:1018900069461F48FEF796FE18B16F211EA000F0A2
:1018A0008AF90C2000900520019069461848FEF73F
:1018B00089FE18B1782118A000F07DF90D20009064
:1018C0000620019069461248FEF77CFE18B181217E
:1018D00011A000F070F90E200090019469460C48A8
:1018E000FEF770FE18B18A210BA000F064F90F20FA
:1018F0000090019569460648FEF764FE002803D073
:10190000932105A000F057F905B030BD002001403B
:10191000145100200100000F2E2E2F5372632F61EF
:1019200064632E630000000008B50948016841F4B3
:1019300080010160006800F48000009000221146E0
:101940003820FFF76BFBBDE808403820FFF75ABB93
:10195000303802402DE9F04387B000243F48016849
:1019600041F020010160016801F02001019101684E
:1019700041F004010160016801F004010191016876
:1019800041F001010160016801F00101019101686C
:1019900041F002010160016801F00201019101685A
:1019A00041F040010160016801F0400101910168CE
:1019B00041F008010160006800F008000190284F24
:1019C00001220E213846FFF789FADFF898800122BC
:1019D0004FF478414046FFF781FADFF88C900122FE
:1019E000FF214846FFF77AFA4FF6FF700290039402
:1019F000049402A91D48FFF76BF90E2002900125FF
:101A0000039504940326059602A93846FFF760F96A
:101A100041F6F07002900394049402A93846FFF74F
:101A200057F9FF2702970394049402A91048FFF77F
:101A30004FF94FF47840029003950495059402A95C
:101A40004046FFF745F9029703950494059602A9CD
:101A50004846FFF73DF907B0BDE8F0833038024053
:101A60000000024000040240000C0240001402404A
:101A700000180240FEE770477047704710B5FFF747
:101A80003BFABDE81040FFF7B5BE000030B593B09B
:101A900000252C48016841F080510160006800F089
:101AA000805000902848016841F44041016000687E
:101AB00000F4404000900224069401200990102078
:101AC0000A900C940D9508200E90B4200F9010945D
:101AD0001194129406A8FFF73DFC20B140F2BD110D
:101AE0001AA000F068F8FFF7DFFA20B14FF4E271B6
:101AF00016A000F060F80F200190029403954FF4B7
:101B0000A05004904FF480500590052101A8FFF7E4
:101B100009FB20B14FF4E9710CA000F04CF8FFF77D
:101B2000BBFB4FF47A71B0FBF1F0FFF74FFE0420DE
:101B3000FFF73DFE00221146501EFFF76FFA13B06B
:101B400030BD000040380240007000402E2E2F5360
:101B500072632F6D61696E2E630000000F4801688B
:101B600041F4700101600E48016841F0010101601B
:101B70000C4A00211160026822F4102222F08072C7
:101B80000260031D084A1A60026822F48022026083
:101B900006480160064958060860704788ED00E075
:101BA0000038024008380240103000240C3802404F
:101BB00008ED00E0FEE7FEE702E008C8121F08C1DA
:101BC000002AFAD170477047002001E001C1121FBE
:101BD000002AFBD170470000FFF796F9FFF756FF88
:101BE000FFF7B8FEFFF7A0FEFFF70AFE0822FE4946
:101BF000FE48FEF725FEDFF8F8E300208EF802002D
:101C00008EF8030072B6FB494AF6AA200860FB4C26
:101C1000DFF8E483C4F81880F9484FF6FC710268D5
:101C20008A42FCD1F84FF74939604FF6FD710268DE
:101C30008A42FCD1F549396039603960DFF8D0A3B8
:101C4000DFF8D0930AF58041F34B91F8EA0FA0F545
:101C5000803591F8EB0FA0F58036206920F0EF0079
:101C600030F47F400AD0C4F81890206920F0EF00CB
:101C700030F47F40F9D1C4F81880EEE7E0480068FE
:101C8000C0F30E02E548028044F6FF7C624505D2AF
:101C90001AF80200A0F580303860DEE7A2F5FC4CAF
:101CA000BCF5F57C00D13D60A2F5FE4CBCF1EB0C1F
:101CB000D3D13E60226922F0EF0232F47F42F9D0A4
:101CC000C4F8189082684260C26882600269C2608B
:101CD0004269026182694261C2698261026AC261CB
:101CE000426A0262826A4262C26A8262026BC262B3
:101CF000BD4AD2F800C0C0F830C0D0F804C0D0F857
:101D000008B0DC44D0F80CB0DC44D0F810B0DC44AF
:101D1000D0F814B0DC44D0F818B0DC44D0F81CB0D3
:101D2000DC44D0F820B0DC44D0F824B0DC44D0F857
:101D300028B0DC44D0F82CB0DC44D0F830B0DC441F
:101D4000A3FB0CBC4FEADC0CC0F834C0D0F834C0A4
:101D50004FEA1C2C81F805C4D0F834C081F804C4C3
:101D6000D0F83CC0C0F838C0D0F840C0C0F83CC083
:101D7000D0F844C0C0F840C0D0F848C0C0F844C053
:101D8000D0F84CC0C0F848C0D0F850C0C0F84CC023
:101D9000D0F854C0C0F850C0D0F858C0C0F854C0F3
:101DA000D0F85CC0C0F858C0D0F860C0C0F85CC0C3
:101DB000D0F864C0C0F860C0D2F804C0C0F864C0F5
:101DC000D0F838C0D0F83CB0DC44D0F840B0DC44A7
:101DD000D0F844B0DC44D0F848B0DC44D0F84CB083
:101DE000DC44D0F850B0DC44D0F854B0DC44D0F837
:101DF00058B0DC44D0F85CB0DC44D0F860B0DC44CF
:101E0000D0F864B0DC44A3FB0CBC4FEADC0CC0F897
:101E100068C0D0F870C0C0F86CC0D0F874C0C0F80A
:101E200070C0D0F878C0C0F874C0D0F87CC0C0F8DA
:101E300078C0D0F880C0C0F87CC0D0F884C0C0F8AA
:101E400080C0D0F888C0C0F884C0D0F88CC0C0F87A
:101E500088C0D0F890C0C0F88CC0D0F894C0C0F84A
:101E600090C0D0F898C0C0F894C0D2F808C0C0F8AC
:101E700098C0D0F86CC0D0F870B0DC44D0F874B022
:101E8000DC44D0F878B0DC44D0F87CB0DC44D0F846
:101E900080B0DC44D0F884B0DC44D0F888B0DC44B6
:101EA000D0F88CB0DC44D0F890B0DC44D0F894B0DA
:101EB000DC44D0F898B0DC44A3FB0CBC4FEADC0C4B
:101EC000C0F89CC0D0F868C04FEA1C2C81F810C440
:101ED000D0F868C081F80FC4D0F89CC04FEADC2C61
:101EE00081F81BC4D0F89CC04FEADC0C81F81AC4FE
:101EF000D0F8A4C0C0F8A0C0D0F8A8C0C0F8A4C052
:101F0000D0F8ACC0C0F8A8C0D0F8B0C0C0F8ACC021
:101F1000D0F8B4C0C0F8B0C0D0F8B8C0C0F8B4C0F1
:101F2000D0F8BCC0C0F8B8C0D0F8C0C0C0F8BCC0C1
:101F3000D0F8C4C0C0F8C0C0D0F8C8C0C0F8C4C091
:101F4000D0F8CCC0C0F8C8C0D268C0F8CC20D0F857
:101F5000A020D0F8A4C06244D0F8A8C06244D0F851
:101F6000ACC06244D0F8B0C06244D0F8B4C062449F
:101F7000D0F8B8C06244D0F8BCC06244D0F8C0C049
:101F80006244D0F8C4C06244D0F8C8C06244D0F8FB
:101F9000CCC06244A3FB02C2D208C0F8D020D0F863
:101FA000D020D20A81F82624D0F8D020D20881F897
:101FB0002524406B00098EF800009EF800000F28D1
:101FC00002D20F208EF800009EF800007F2802D970
:101FD0007F208EF800009EF8000081F802049EF831
:101FE000000081F803041BE0F4500020145100208D
:101FF000E4500020003000400800FFFF00000240D5
:10200000101402400000FFFF180C02408800FFFF80
:10201000D40000200C00FFFFABAAAAAA00000020F9
:10202000206920F0EF0030F47F40DCD1C4F8188044
:1020300013E600061016000610160000000000004F
:102040000000010203040607080900006C200008D4
:1020500000000020E4500000C0020008742C0008BA
:10206000E4500020DC040000C81B000801D402FF7B
:102070004001FF01FF01FF31144BABA910155BAE0E
:10208000FD1F8E7243AEFF1F8E7443E220C210A963
:102090008F8D1621A20121741008E8E00D21D0F8DF
:1020A00074290A18151521D0F6A9808D15219C16C2
:1020B000219C17219C1A21A21B23291B1A211B3B9F
:1020C000A223301A3430159C3E219C381A42A9FFB5
:1020D0008D01429C0B429C0C429C0D42AD1042482B
:1020E000DA08C230E2204415A209188E2343A21553
:1020F0008E162186158E0243A9180D8D0443A2FF6A
:10210000FF8E0543A9018D364E192128FA68321534
:102110009C2121A21D019C222103100ECAD0F72868
:10212000FA9C02219C0321A2801EA9F08D042103A8
:102130003A9C0316CAD0F1A2203909280EFA9C81D4
:10214000219C82219C8321A208806A7B13856519CA
:1021500075596539050011FF4BAB58AE72438EFDC2
:102160001FAD74438DFF1F6B01FF01EF100B78183B
:10217000FBC238A2FF1F9A2212841008A2FF1D9AE8
:10218000E220A9158D2121A21394A913A0081220E1
:10219000DC8CA91F102A40108A08101C808D152085
:1021A000112E8E1621A210166DC0012017162A10AE
:1021B00016111ABC16111A031658209C0521A904E1
:1021C0008D0721A90C8D0821A9148D09219C0B21B3
:1021D000A9018D0C21A9078D2C21352A04352BD07E
:1021E00095358A084B3A14167A9D16130F8D1621D1
:1021F000205890A01602206790B91790208290C0B6
:102200005816D0F5A97F8D1A10051B0110CA1B02A4
:10221000105E2A030A280C0410A9FF8D0510A9E0FE
:102220008D06142A07142A08052A09052A0A322AC3
:1022300010052A110F2A12232A130A2A14372A15E5
:10224000372F1610A9028D17142A18052A19052AE6
:102250001A322A20052A210F2A22372A230A2A2461
:10226000372A25372A260F2A27052A28052A29054D
:102270002A2A322A30052A310F2A32372A330A2AEB
:1022800034372A35372A360F2A37052A38052A39AE
:10229000052F3A10A9208D800A1D8110A903052D54
:1022A00049FF8D82962A83142A84052A85552A8619
:1022B000052A870F2A8805200B8910A9338D8A10DB
:1022C000C220A212BD13A49F16247FE88AC93C181D
:1022D000D0F21113A09D2A1E103C01D0F31013C898
:1022E0009F2A10211010C201D0F2E22020A0909C61
:1022F0001640A9818D180C42C2308B48DA5A0BE285
:10230000205C4201FF01C8100B8E02438D04438CF8
:1023100005439C780D43A9228D0143A9018D0B42F1
:102320006017190F19197A181901FF01FF01FF0130
:10233000D31E1002100222021A34021A46025BB0A7
:1023400078016AB3095BB077015BB399011014B0EF
:102350000123456776543210B3FEDCBA9889ABCDC1
:10236000EFB0181C11223344556677B38899AABB85
:10237000CCDDEEFFA9AACD4021D0FBA9BBCD410702
:102380003814608C4221AD4021186922D0011A8D89
:1023900041218D40211F22A01A600F1A98103AC8BF
:1023A000111560DAA0F23F20679068208204136064
:1023B000A5280CEBAD8310EB095DAA2090900D1AB7
:1023C000840D6A3D0D1A850D6A4D0D1A800D6A6CDB
:1023D0000D1A820D6A5C0D1A810D6A4C0D1A880D5A
:1023E0006A2C0D1A890D6A3C0D1A860D6A0C0D1A9D
:1023F000870D2A1C0D39836A8A5C02FF6001FF0188
:10240000D31CFF01FF0321131040021250123E7A29
:102410006302323E120C1A1C0449027A1E20120E6C
:10242000121812309A7F106930120E121612261AE4
:10243000661C1A060221127F12601A7E1C5A0320A3
:102440002930491249101A7F0812041A085029022B
:102450006950690669107A3F4029261A2C02123EFB
:10246000124632EF127E1A31023A3E06327E1A3D91
:10247000281A61621A61022930492049022920295B
:102480001012341A3C043A31C0891012303278FAF2
:10249000FF029A810249105ABD0229102112FE7AC8
:1024A00082023AFE101A800212FE1A0202891049B4
:1024B000022910BA0402213A3C08123C1A20027A7E
:1024C0003C105A1C16213A240249162930211A9030
:1024D0000212F71291129202FF9701441214121580
:1024E0001216DA1710DA1810DA191002491A7A12CD
:1024F00006890A092A10018A0A3D1B10017C0A3D3F
:10250000121009FD8009FD8001FF01FF01CE1201BB
:1025100012021203120412051206120712081209FF
:10252000120A120B120C120D120E02230F121112AC
:10253000121213121412151216121712181219125F
:102540001A121B121C121D121E02351F122A122BE8
:10255000122C122D122E02FF2F01421010C2308BAE
:1025600048DA5A0BE220A9808D1521A21C0C8E1688
:10257000061540A97FA0100E088E02438D04438CDF
:102580000543A9018D2E43A9188D010A0010FF0BE8
:1025900042AD1042C2302B7AFA68ABE2204001FF14
:1025A00001FF01C213A20222A012BD13C499680B3D
:1025B00010E8C88AC906D0F3A20D133A10131A11F5
:1025C000136A18133A20131A1C136A23133A301390
:1025D0001A27136A34133A8613100B36D0F3CBA99B
:1025E0000F8D0242AD17108D03426203480B828F9C
:1025F00003EAC220AD16424A011EE2208D0B1034C0
:102600001009A28206E220A9119F1009407FC22072
:102610008A38E940100CAAE220C898CD0B10D0E708
:10262000A9E9174DC90FD0EA586A1058FAAF583ABD
:102630001B580A1492580A1D1B586A2058FACF5882
:102640003A2B580A14A2580A1D2B586A3058FAEF30
:10265000583A3B580A14B2580A173B58294D3B1AAE
:1026600004073B3312074A52073B2D13071B121472
:1026700069180CAFC0117FCFC2117FF022AF0614D2
:10268000AABF0A247FAAA92950291B59113A13115C
:102690002EE220AD0310941E1A8F82427F0C1E2959
:1026A0000F1A8F840A5A02163A860C29161A880ABB
:1026B0005A13163A920C29161A940A5A12163A9676
:1026C0000C29161A980A5A23163AA20C29161AA48B
:1026D0000A5A22163AA60C29161AA80A5A33163A8A
:1026E000B20C29161AB40A5A32163AB60C29161523
:1026F000B8427F5C03FF247F013A12A513EBAD14AF
:1027000010EB0914AA62032D821502EA111A0111B5
:102710003A01114A04111A02113A02113BF3011154
:102720001A03113A03114AE2111A04113A04114A28
:10273000D1111A05113A05114AC0111A06113A06AB
:10274000112DAF01EA60121A10123A10124A9D239D
:102750001A11113A11114A8C111A12113A12114A16
:102760007B111A13113A13114A6A111A14113A14EF
:10277000114A59111A15113A15114A48111A161110
:102780003A16115A37781A20123A20124A25231A7B
:1027900021113A21114A14111A22113A22114A0325
:1027A000111A23113A231112F239111A24113A2461
:1027B000114AE1111A25113A25114AD0111A261190
:1027C0003A261112BF49781A30123A30124AAD2314
:1027D0001A31113A31114A9C111A32113A32114A06
:1027E0008B111A33113A33114A7A111A34113A34CF
:1027F000114A69111A35113A35114A58111A361110
:102800003A36115A47781A86123A0C124A35231A68
:1028100087113A1C114A24111A8A113A6C114A1371
:10282000111A84113A3D111A024514DAA0F2201946
:102830008C4221AD4021186922D0011A8D41218D91
:102840004021CD4021D0FBA01A680F1A98103AC839
:1028500011C90E02FF6001FF01FF01FF01FF01FF2F
:1028600001FF01FF01FF01FF01FF01FF01FF01ADBA
:10287000100BAD12422901D0F9C220AE160FAD18CF
:10288000428D140F8A4D130F2D2E0F8D020F8A07C4
:102890002810040FE22060C220AFC0117F8FC21148
:1028A0007F0823AABF5B7F4A0113290F13C90115B3
:1028B000F019C90215F027C90515F035C90815F03A
:1028C00050C90A15F05EC90E17F079AD020FC9168E
:1028D00008D008BF021B7F8F3E194F39131A02130D
:1028E000CA0413992612C91A040DCA06201A011324
:1028F0000A170846092020995309122D5C80F0011F
:10290000EA12C9101510F015C92A10F041C9541067
:10291000F06DC97E10D003829619281011E220AD07
:102920000710C901F01AA9018D0710A25C136203F8
:10293000280882DEF0EAA24C010A2ED4F0EA609C5C
:1029400018390E1AC60E19311D1710C902316C0242
:102950008D17312AAD312A020A2AA3312918390EDE
:102960004A95311D2710C904316C048D27312A7C0A
:10297000312A040A2A72312918390E4A64311D3766
:1029800010C908316C088D37312A4B312A080A2AC0
:1029900041312918390E1A330EC9EC180C18C97BAD
:1029A00011B019C99B10B003E014AABF0C10097F25
:1029B000E220E210AAEB9D6C10C21011000AFF2960
:1029C0000F4D84108D84106001E4120F121F12311C
:1029D0001A6002527012831AC7021A0702520F1AA3
:1029E0000C021A8C021A9802411A7F02292E1260D8
:1029F00052C012C31A87221A1802521C12E05AF04F
:102A00004A613A03023A06024112F012FC9A0E1091
:102A10001A3F025A3052411AC0421A61021A635ACE
:102A200041123C1AFE903A83464990121C3A1E020B
:102A3000523E5A31022932411AFF303A8002011CBB
:102A400052011A7E7C1A030C1AC16C12FE5A7CEADF
:102A500029EC29D012183AD80212D93A71021A3147
:102A6000241AFEA03AC05E290C121F520F1A30F22F
:102A70001A3F0E1A80BC3AE0CA2924211A06EA5AE3
:102A80000C021A1F0229F4290C121812381AF176B6
:102A90001A7FAE1AC10229541A81025A86023AC616
:102AA000F23A81F44934121C16E01DE01233490257
:102AB0001A61021E21C6204963F412631A67301995
:102AC000321518C324F86AF8DFD6038872689212A8
:102AD0007802B148123212261A240281125112D100
:102AE0001292928C1A450212491231120252031AA2
:102AF0001202122612E4122052C012F81280129012
:102B000002FF6001FF01FF01FF01FFF1137F7F1250
:102B1000018CFFE0010B8A020B9921411C2003FC70
:102B20001D19111102FF3301FF01FF01CB62082DB6
:102B30000E10C20107312F10A8101C10C80E2A0A4F
:102B400018215C2A10CC0E1A1C0E5C3810D22A58A0
:102B5000082A10B6104610D81C1A381C5C5410DC19
:102B60000E1A460E5C6210E22A58085410C4107007
:102B700010E81C1A621C5C7E10EC0E1A700E5C8C45
:102B800010F22A28087E10D2109A10F80E2A021885
:102B900029822AFC0E2A058A1AE0041C4803040E26
:102BA000296E1AEE041C5803140E29521AFC041C38
:102BB0006803240E2936230A111C7803340E1AA840
:102BC0000E1A180E15C80304011B05B60E1A260EA0
:102BD0001CD803140E1AC40E1A340E1CE803240E5B
:102BE0001AD20E1A420E1CF803340E296C1A500E1B
:102BF00015480404022A056C1A5E0E1C5804140EB3
:102C0000296C1A6C0E1C6804240E296C2A7A701B1D
:102C100004340E296C2A8870140404032A056C2AD3
:102C200096701B04140E296C2AA4701B04240E2910
:102C30006C2AB270140434032A016C411B4805EF5E
:102C40002A016C411C5805020E296C411B6805FCC9
:102C50002A016C413C7805086A01FF01FF01FF0170
:102C6000FF01FF01FF012D02141E32018210132407
:042C7000F40000006C
:04000005080001C529
:00000001FF
