:020000040800F2
:1000000020550020D9010008771A0008FD170008C4
:10001000751A0008C9040008B51B0008000000009C
:100020000000000000000000000000007B1A000833
:10003000C305000800000000791A00087D1A0008B6
:10004000F3010008F3010008F3010008F3010008C0
:10005000F3010008F3010008F3010008F3010008B0
:10006000F3010008F3010008F3010008F3010008A0
:10007000F3010008F3010008F3010008F301000890
:10008000F3010008F3010008F3010008F301000880
:10009000F3010008F3010008F3010008F301000870
:1000A000F3010008F3010008F3010008F301000860
:1000B000F3010008F3010008F3010008F301000850
:1000C000F3010008F3010008F3010008F301000840
:1000D000F3010008F3010008F3010008F301000830
:1000E000F3010008F3010008F3010008F301000820
:1000F000F3010008F3010008F3010008F301000810
:10010000F3010008F3010008F3010008F3010008FF
:10011000F3010008F3010008F3010008F3010008EF
:10012000CD040008F3010008F3010008F301000802
:10013000F30100080000000000000000F3010008C7
:10014000F3010008F3010008F3010008F3010008BF
:10015000F3010008F3010008F3010008F3010008AF
:10016000F3010008F3010008F3010008F30100089F
:10017000F3010008F3010008F3010008000000008B
:1001800000000000F3010008000000000000000073
:10019000F30100080000000000000000F301000867
:1001A000000000000000000000000000F301000853
:1001B000F3010008F3010008F3010008F30100084F
:1001C000F3010008DFF80CD000F068F800480047A1
:1001D000D91B0008205500200648804706480047E4
:1001E000FEE7FEE7FEE7FEE7FEE7FEE7FEE7FEE7E7
:1001F000FEE7FEE75D1B0008C50100082DE9F05F82
:100200000546002092469B46884606468146402485
:100210001BE0284641464746224600F02FF8534649
:100220005A46C01A914110D311461846224600F092
:1002300016F82D1A67EB01084F46224601200021CF
:1002400000F00DF817EB00094E41201EA4F1010447
:10025000DFDC484631462A464346BDE8F09F202A67
:1002600004DB203A00FA02F1002070479140C2F10D
:10027000200320FA03F3194390407047202A04DB3F
:10028000203A21FA02F00021704721FA02F3D0400F
:10029000C2F120029140084319467047064C074DB1
:1002A00006E0E06840F0010394E807009847103446
:1002B000AC42F6D3FFF78AFF041E0008241E000894
:1002C00070B58C1810F8015B15F0070301D110F818
:1002D000013B2A1106D110F8012B03E010F8016B45
:1002E00001F8016B5B1EF9D12B0705D40023521EC8
:1002F0000DD401F8013BFAE710F8013BCB1A921C30
:1003000003E013F8015B01F8015B521EF9D5A1422D
:10031000D8D3002070BD10B50246906B016C11F06F
:10032000500F05D0806BC16CBDE8104010460847E7
:10033000016C41F40071016401688A6812F0405F49
:1003400019D18269BAB9CA6A12F4700F03D08A68E7
:1003500012F4806F0FD14A6822F020024A60016CCB
:1003600021F480710164016C11F4805F03D1016C90
:1003700041F00101016400F0E3F910BD10B5806B9C
:1003800040210164416C41F00401416400F0DAF95C
:1003900010BD10B5806B00F0D4F910BD49494A6812
:1003A00022F440324A604A6843681A434A6001684E
:1003B0004A6822F480724A6001684A68036942EA26
:1003C00003224A6001684A6822F040724A6001686C
:1003D0004A6883681A434A6001688A6822F40062A6
:1003E0008A6001688A68C3681A438A60816A6FF00C
:1003F0007062D14214D001688A6822F070628A600B
:1004000001688A68836A1A438A6001688A6822F0F0
:1004100040528A6001688A68C36A1A438A6009E0A8
:1004200001688A6822F070628A6001688A6822F036
:1004300040528A6001688A6822F002028A6001687C
:100440008A68836942EA43028A60016A89B1016865
:100450004A6842F400624A6001684A6822F46042D5
:100460004A6001684A68436A5B1E42EA43324A6056
:1004700004E001684A6822F400624A600168CA6ABE
:1004800022F47002CA620168CA6A838B5B1E42EA68
:100490000352CA6201688A6822F400728A600168A5
:1004A0008A68036B42EA43228A6001688A6822F400
:1004B00080628A6001688A68406942EA80208860B8
:1004C0007047000000230140FEE70000014800F0F3
:1004D00055BA0000C050002001680A4BCAB2103A59
:1004E000A3FB02321209084B9B5CC365032A04D9A3
:1004F0006FF30901091D816502E06FF30901816550
:10050000806D7047ABAAAAAAEC1D00080146002026
:100510008A6A8B69002B0FD0B3F5005F1DD08AB3B8
:10052000012A30D0022A2ED0032A04D1C96A11F040
:10053000807F00D0012070471AB1012A07D0022A1B
:10054000F9D1C96A11F0807FF5D001207047C96ADE
:10055000B1F1C07FFAD1012070475AB1012A0BD006
:10056000022A07D0032AF7D1C96AB1F1C07FF3D1BB
:100570000120704701207047C96A11F0807FFAD0CE
:1005800001207047FFE70120704710B4D0F800C089
:10059000DCF8004024F48024CCF80040D0F800C0FF
:1005A000CCF804308368402B05D00368996000685C
:1005B000C26010BC704703689A600068C16010BCDC
:1005C0007047704738B44FF0000CCDF800C090F879
:1005D0003C20012A1BD0012280F83C200A68072415
:1005E000092A17D90368DD680A3A02EB420204FAC5
:1005F00002F225EA0202DA600A788B680A3A02EB14
:10060000420293400268D4682343D36014E038BCAC
:100610000220704703681D6902EB420204FA02F2ED
:1006200025EA02021A610A788B6802EB42029340C3
:1006300002681469234313614A681F24072A15D2EC
:1006400003685D6B521E02EB820204FA02F225EA95
:1006500002025A630A8893B20A79521E02EB82029E
:1006600093400268546B234353632CE00D2A15D248
:1006700003681D6BD21F02EB820204FA02F225EA24
:1006800002021A630A8893B20A79D21F02EB82022D
:1006900093400268146B2343136314E00368DD6A1C
:1006A0000D3A02EB820204FA02F225EA0202DA6251
:1006B0000A8893B20A790D3A02EB820293400268EB
:1006C000D46A2343D362194A194B04689C4206D169
:1006D0000C68122C03D1546844F4800454600468FC
:1006E0009C421DD1134C0B68A34201D0112B17D192
:1006F000536843F4000353600968A14210D10E49C6
:100700000E4A0968B1FBF2F101EB81014900009149
:10071000009929B10099491E009100990029F9D149
:1007200080F83CC038BC0020704700000023014026
:1007300000200140120000104450002040420F00F1
:1007400070477047704770B504460025002C03D0F1
:10075000206C002610B107E0012070BD666484F8AB
:100760003C60204600F01AF8206C10F0100F04D006
:10077000012584F83C60284670BD206C20F4885028
:1007800040F0020020642046FFF708FE6664206CFB
:1007900020F0020040F001002064EAE770B586B066
:1007A00005462868A0F18041B1F5903133D100268B
:1007B0001A48016841F480710160006800F480709B
:1007C00000903F20019003240294039601A914484D
:1007D00000F07EFA01940294039601A9114800F0FA
:1007E00077FA124C104820606660A660E66000153B
:1007F0002061800060618000A0618011E06126625C
:100800006662204600F0B0F918B1C72108A001F0D7
:10081000D2F9AC63A56306B070BD00004438024055
:10082000000802400004024010640240C050002052
:100830002E2E2F5372632F6164632E63000000001D
:1008400038B504460023009394F83C00012809D0F1
:10085000012084F83C002068D0F808C01CF0010F8B
:1008600002D018E0022038BDD0F808C04CF0010CCE
:10087000C0F808C03B48DFF8F0C00068B0FBFCF0EF
:1008800000EB40000090009828B10098401E0090B6
:1008900000980028F9D12068D0F808C01CF0010F9A
:1008A0005DD0D4F840C02CF0010C2CF4C06C4CF49A
:1008B000807CC4F840C0406810F4806F05D0206C84
:1008C00020F4005040F480502064206C10F4805FCD
:1008D00004D0606C20F00600606400E0636484F87B
:1008E0003C30224DA36B2248D863A36B2148186487
:1008F000A36B2148D86423686FF022001860206839
:10090000436843F0806343602068836843F48073E6
:1009100083602068134600F14C0C0A466146A06BC8
:1009200000F098F9686810F01F0F0AD02068A0F155
:100930008041B1F5903112D1816811F0405F0AD049
:100940000DE02068816811F0405F08D1816841F0B6
:100950008041816003E0816841F080418160002036
:1009600038BD00004450002040420F0000230140E9
:1009700017030008930300087D0300082DE9F843DE
:1009800004464FF00008CDF8008076484FF4165129
:100990000068B0FBF1F7A56D2E6894F85C000821A3
:1009A00001FA00F0304211D02068026812F0040F02
:1009B0000CD0026822F00402026094F85C0001FA94
:1009C00000F0A860606D40F00100606594F85C0084
:1009D0004FF0010909FA00F0304209D02168496955
:1009E00011F0800F04D0A860606D40F002006065D7
:1009F00094F85C1004208840304209D021680968CE
:100A000011F0020F04D0A860606D40F00400606532
:100A100094F85C1010208840304224D02168096886
:100A200011F0080F1FD0A8602068016811F4802F12
:100A30000DD0006810F4002F04D0A16C99B12046AD
:100A4000884710E0216C71B1204688470BE00168AF
:100A500011F4807F03D1016821F008010160216C4D
:100A600009B12046884794F85C1020208840304225
:100A700051D02168096811F0100F4CD0A86094F88B
:100A8000350005280DD02068016811F4802F32D080
:100A9000006810F4002F29D0E16B59B32046884735
:100AA00039E02068016821F0160101602068416981
:100AB00021F080014161206C08B9A06C20B1206850
:100AC000016821F00801016094F85C003F2101FAFF
:100AD00000F0A86084F8348084F83590216D0029F6
:100AE0003ED001B02046BDE8F0430847616C09B133
:100AF000204688470FE0016811F4807F07D1016824
:100B000021F01001016084F8348084F83590E16BA5
:100B100009B120468847606D002821D0606D10F033
:100B2000010F15D0052084F835002068016821F0F8
:100B3000010101600098401C0090B84204D8206870
:100B4000006810F0010FF5D184F8348084F83590F6
:100B5000E16C002904D001B02046BDE8F04308470D
:100B6000BDE8F883445000202DE9F041044600F030
:100B7000BDF90546DCB1002684F83460022084F813
:100B800035002068016821F00101016020680068DB
:100B900010F0010F13D000F0A9F9401B052809D966
:100BA00020206065032084F83500BDE8F081012035
:100BB000BDE8F0812068006810F0010FEBD12168DA
:100BC0000868234A1040A3686268D4F810C01A432A
:100BD000E36843EA0C031A4363691A43A3691A439F
:100BE000E3691A43236A1A431043626A042A03D151
:100BF000236BE26A1A43104308602068406920F0C2
:100C00000701606A40EA0105012704280ED1A06AA5
:100C10000543E06A50B12046FFF778FC30B1402030
:100C2000606584F835700120BDE8F0812068456179
:100C30002046FFF751FC94F85C103F2202FA01F1C4
:100C40008160666584F835700020BDE8F0810000A1
:100C50003F8010F070B504460025A66D94F834006E
:100C600001280DD0012084F8340094F835C000200C
:100C7000BCF1010F06D084F834000225284670BD6F
:100C8000022070BD4FF0020C84F835C0606520462C
:100C9000FFF77BFC94F85C003F2101FA00F0B060A4
:100CA0002068016841F0160101602068416941F047
:100CB00080014161206C20B12068016841F0080189
:100CC00001602068016841F001010160D6E7000081
:100CD0002DE9F84F0022DFF8F081DFF8F091DFF81E
:100CE000F0A14FF0030E0F27012303FA02F50B6862
:100CF0002B40AB427DD1D1F804C0BCF1020F02D031
:100D0000BCF1120F12D14FEAD20C00EB8C0CDCF8C4
:100D100020605407E40E07FA04FB26EA0B06D1F81C
:100D200010B00BFA04F43443CCF8204006684FEAC4
:100D3000420C0EFA0CF4A64391F804B00BF0030B2E
:100D40000BFA0CFB4BEA060606604E68012E05D036
:100D5000022E03D0112E01D0122E11D18668A64387
:100D6000D1F80CB00BFA0CFB4BEA0606866046681D
:100D700026EA05050E79C6F3001696403543456010
:100D8000C56825EA04048D6805FA0CFC4CEA040CDD
:100D9000C0F80CC0D1F804C01CF0805F78D0D8F83F
:100DA00000C04CF4804CC8F800C0D8F800C00CF467
:100DB000804CCDF800C022F0030C0CF1804505F505
:100DC0009835D5F808C89407240F07FA04F62CEADA
:100DD0000606A0F1804CBCF5003C5FD0A0F1804C31
:100DE000BCF5013C5DD0A0F1804CBCF5023C5BD071
:100DF00000E04DE0A0F1804CBCF5033C57D0A0F1E1
:100E0000804CBCF5043C55D0A0F1804CBCF5053CB1
:100E100053D0A0F1804CBCF5063C51D04FF0070CEC
:100E20000CFA04FC4CEA060CC5F808C8D9F800C056
:100E30002CEA030C4C6814F4803F01D04CEA030CFC
:100E4000C9F800C0234CD4F800C02CEA030C4D684C
:100E500015F4003F01D04CEA030CC4F800C01E4C4E
:100E6000D4F800C02CEA030C4D6815F4801F01D0A3
:100E70004CEA030CC4F800C0DAF800C02CEA030CFA
:100E80004C6814F4001F01D04CEA030CCAF800C0EF
:100E9000521C102AFFF428AFBDE8F88F4FF0000C69
:100EA000BEE74FF0010CBBE74FF0020CB8E74FF084
:100EB000030CB5E74FF0040CB2E74FF0050CAFE7B9
:100EC0004FF0060CACE7000044380240003C014003
:100ED0000C3C0140043C0140083C0140002A01D088
:100EE0008161704709048161704700000148806892
:100EF0007047000038500020024881680278114491
:100F0000816070473850002010B50B48016841F4EB
:100F100000710160016841F480610160016841F481
:100F200080710160032000F0ADF8002000F006F8A9
:100F300000F026F8002010BD003C024070B50446C9
:100F40000D4D4FF47A712878B1FBF0F00B49096828
:100F5000B1FBF0F000F03AFC08B1012070BD102C9C
:100F600007D200222146501E00F058F86C60002085
:100F700070BD012070BD000038500020445000209A
:100F800008B51E48016841F480410160006800F422
:100F9000804000901A48016841F08051016000686B
:100FA00000F080500090032000F06CF80022114601
:100FB0006FF00B0000F032F8002211466FF00A00CB
:100FC00000F02CF8002211466FF0090000F026F81E
:100FD00000221146501F00F021F800221146101F78
:100FE00000F01CF800221146901E00F017F80022B5
:100FF000BDE808401146501E00F010B844380240C9
:101000004038024000F01F01012202FA01F14009BC
:10101000800000F1E020C0F80011704710B4184BB8
:101020001B68C3F30223C3F1070CBCF1040F01D901
:101030004FF0040C1C1D072C01D2002300E0DB1E26
:10104000012404FA0CFCACF1010C0CEA01019940FA
:1010500004FA03F35B1E1A401143002808DA00F07B
:101060000F0000F1E020090180F8141D10BC70474A
:1010700000F1E020090180F8001410BC7047000066
:101080000CED00E000F00700064A11684FF6FF0380
:10109000194041EA002040F0FD7040F0806010608F
:1010A000704700000CED00E0F8B51B48016841F006
:1010B00080510160006800F080500090174F0126B9
:1010C0003E64FFF713FF0546154C606810F4803F3F
:1010D0000BD1FFF70BFF401BB0F57A7F01D903203E
:1010E000F8BD606810F4803FF3D07E64FFF7FEFE29
:1010F0000546606810F4003F0BD1FFF7F7FE401B78
:10110000B0F57A7F01D90320F8BD606810F4003F84
:10111000F3D00020F8BD00004038024000000E422D
:10112000007000402DE9F04704460D46002C13D016
:10113000DFF85091D9F80000EFB200F00F00A8429C
:101140000DD289F80070D9F8000000F00F00A84215
:1011500005D00120BDE8F0870120BDE8F0872068B8
:10116000494E10F0020F14D010F0040F03D0306875
:1011700040F4E0503060207810F0080F03D0306861
:1011800040F4604030603068A16820F0F00008430F
:101190003060207810F0010F3ED060683B49012894
:1011A00008D002280DD003280BD0096811F0020FD7
:1011B00028D00AE0096811F4003F06D10120BDE8FB
:1011C000F087096811F0007F19D0316821F0030120
:1011D00008433060FFF78AFE80463068616800F09F
:1011E0000C00B0EB810F17D041F2883AFFF77EFE7A
:1011F000A0EB0800504508D90320BDE8F087012086
:10120000BDE8F0870120BDE8F0873068616800F034
:101210000C00B0EB810FE9D1D9F8000000F00F000D
:10122000A8420AD989F80070D9F8000000F00F0030
:10123000A84202D00120BDE8F087207810F0040F0A
:1012400005D03068E16820F4E05008433060207831
:1012500010F0080F06D03068216920F4604040EAA1
:10126000C100306000F01EF83168094AC1F3031173
:10127000515CC840074908600020FFF75FFE00206E
:10128000BDE8F087003C02400838024000380240C8
:10129000F41D000844500020014800687047000019
:1012A0004450002010B52748006810F00C01264873
:1012B00018D0264B042914D0254C082913D00C290A
:1012C00010D1216801F03F02216811F4800F2AD06B
:1012D0002068C0F38810A0FB03010023FEF78EFFF7
:1012E00029E0184610BD216801F03F02216811F481
:1012F000800F08D02068C0F38810A0FB03010023F2
:10130000FEF77CFF07E021680023C1F38811A1FBF1
:101310000001FEF773FF2168C1F30141491C490038
:10132000B0FBF1F010BD21680023C1F38811A1FBCF
:101330000001FEF763FF2168C1F30271B0FBF1F019
:1013400010BD0000083802400024F40040787D0100
:10135000043802402DE9F84F04464FF00C0820787D
:1013600010F0010FFE4EA6F1040567D0301D016894
:1013700001F00C01042910D0016801F00C010829CA
:1013800003D1316811F4800F07D1006838EA0000FA
:101390000DD1306810F4800F09D0286810F4003F98
:1013A0004CD06068002849D10120BDE8F88F606802
:1013B000B0F5803F14D0B0F5A02F16D0286820F4E7
:1013C00080302860286820F480202860606810B38E
:1013D000FFF78CFD0746286810F4003F0ED02DE083
:1013E000286840F480302860F0E7286840F48020C6
:1013F0002860286840F480302860E7E7FFF776FD32
:10140000C01B642802D90320BDE8F88F286810F4B7
:10141000003FF3D012E0FFF769FD0746286810F49B
:10142000003F0BD0FFF762FDC01B642802D90320E8
:10143000BDE8F88F286810F4003FF3D12078C94F39
:1014400010F0020F4FF000095FD0C748016811F09B
:101450000C0F1CD0016801F00C01082903D1316880
:1014600011F4800F13D0006838EA000003D130680F
:1014700010F4800F0BD0E06880B301203860FFF7D4
:1014800035FD8046286810F0020F12D01EE0286853
:1014900010F0020F05D0E068012802D00120BDE85D
:1014A000F88F2868216920F0F80040EAC100286020
:1014B0002BE0FFF71BFDA0EB0800022802D9032058
:1014C000BDE8F88F286810F0020FF2D02868216973
:1014D00020F0F80040EAC100286016E0FFE7C7F8F6
:1014E0000090FFF703FD8046286810F0020F0CD033
:1014F000FFF7FCFCA0EB0800022802D90320BDE89E
:10150000F88F286810F0020FF2D1207810F0080F41
:1015100035D09648DFF858A26169C1B10121016058
:10152000FFF7E4FC8046DAF8000010F0020F26D145
:10153000FFF7DCFCA0EB0800022802D90320BDE87D
:10154000F88FDAF8000010F0020FF1D017E0C0F8C1
:101550000090FFF7CBFC8046DAF8000010F0020F95
:101560000DD0FFF7C3FCA0EB0800022802D903202E
:10157000BDE8F88FDAF8000010F0020FF1D1207802
:1015800010F0040F71D04FF000087A48006810F096
:10159000805F0AD17748016841F08051016000689E
:1015A00000F0805000904FF00108DFF8CCB1DBF87C
:1015B000000010F4807F1BD1DBF8000040F4807045
:1015C000CBF80000FFF792FC8246DBF8000010F435
:1015D000807F0DD1FFF78AFCA0EB0A00022802D918
:1015E0000320BDE8F88FDBF8000010F4807FF1D015
:1015F000A068DFF888B1012818D005281DD0DBF8D5
:10160000000020F00100CBF80000DBF8000020F023
:101610000400CBF80000A06840B3FFF767FC8246E7
:10162000DBF8000010F0020F14D03EE0DBF8000001
:1016300040F00100CBF80000EDE7DBF8000040F0DF
:101640000400CBF80000DBF8000040F00100CBF80C
:101650000000E0E7FFF74AFCA0EB0A0141F2883006
:10166000814204D90320BDE8F88F26E005E0DBF8CD
:10167000000010F0020FEDD017E0FFF737FC8246B4
:10168000DBF8000010F0020F0FD0FFF72FFCA0EBEB
:101690000A0141F28830814202D90320BDE8F88F67
:1016A000DBF8000010F0020FEFD1B8F1010F04D108
:1016B0003048016821F080510160A069F0B32A49E7
:1016C000096801F00C0108296ED0022810D0C7F873
:1016D0006090FFF70BFC0446286810F0007F60D094
:1016E000FFF704FC001B022857D90320BDE8F88F40
:1016F000C7F86090FFF7FAFB8046286810F0007F7B
:101700000CD0FFF7F3FBA0EB0800022802D903205E
:10171000BDE8F88F286810F0007FF2D1216AE069F7
:10172000A26A0843616A4FF0FF33890103EB52025A
:1017300041EA0241084394F82C1000E031E040EA0D
:10174000016094F8301040EA017030600120386682
:10175000FFF7CCFB0446286810F0007F21D10FE092
:10176000043802400000474208380240800E4742D9
:101770007438024040380240007000407038024027
:10178000FFF7B4FB001B022802D90320BDE8F88F45
:10179000286810F0007FE2D003E0286810F0007F96
:1017A0009ED10020BDE8F88F0120BDE8F88F4FF0F2
:1017B000E021042804D0086920F004000861704783
:1017C000086940F00400086170477047401EB0F19E
:1017D000807F01D3012070474FF0E0214861044A27
:1017E000F0201070002088610720086100207047F9
:1017F00023ED00E010B5FFF7E8FF10BDFEE70000A5
:1018000030B585B04248414901604FF480314160B4
:10181000002181600124046184610162C1623D4A4A
:101820008262C1600825C56104634461FEF78BFFD5
:1018300018B14A2138A000F0BEF9009501940724A0
:10184000029469463248FEF7BDFE18B1542132A019
:1018500000F0B1F9092000900220019069462C485F
:10186000FEF7B0FE18B15D212BA000F0A4F90A200C
:1018700000900320019069462548FEF7A3FE18B1A9
:10188000662125A000F097F90B200090042001901C
:1018900069461F48FEF796FE18B16F211EA000F0A2
:1018A0008AF90C2000900520019069461848FEF73F
:1018B00089FE18B1782118A000F07DF90D20009064
:1018C0000620019069461248FEF77CFE18B181217E
:1018D00011A000F070F90E200090019469460C48A8
:1018E000FEF770FE18B18A210BA000F064F90F20FA
:1018F0000090019569460648FEF764FE002803D073
:10190000932105A000F057F905B030BD002001403B
:10191000785000200100000F2E2E2F5372632F618C
:1019200064632E630000000008B50948016841F4B3
:1019300080010160006800F48000009000221146E0
:101940003820FFF76BFBBDE808403820FFF75ABB93
:10195000303802402DE9F04387B000243F48016849
:1019600041F020010160016801F02001019101684E
:1019700041F004010160016801F004010191016876
:1019800041F001010160016801F00101019101686C
:1019900041F002010160016801F00201019101685A
:1019A00041F040010160016801F0400101910168CE
:1019B00041F008010160006800F008000190284F24
:1019C00001220E213846FFF789FADFF898800122BC
:1019D0004FF478414046FFF781FADFF88C900122FE
:1019E000FF214846FFF77AFA4FF6FF700290039402
:1019F000049402A91D48FFF76BF90E2002900125FF
:101A0000039504940326059602A93846FFF760F96A
:101A100041F6F07002900394049402A93846FFF74F
:101A200057F9FF2702970394049402A91048FFF77F
:101A30004FF94FF47840029003950495059402A95C
:101A40004046FFF745F9029703950494059602A9CD
:101A50004846FFF73DF907B0BDE8F0833038024053
:101A60000000024000040240000C0240001402404A
:101A700000180240FEE770477047704710B5FFF747
:101A80003BFABDE81040FFF7B5BE000030B593B09B
:101A900000252C48016841F080510160006800F089
:101AA000805000902848016841F44041016000687E
:101AB00000F4404000900224069401200990102078
:101AC0000A900C940D9508200E90B4200F9010945D
:101AD0001194129406A8FFF73DFC20B140F2351195
:101AE0001AA000F068F8FFF7DFFA20B14FF49E71FA
:101AF00016A000F060F80F200190029403954FF4B7
:101B0000A05004904FF480500590052101A8FFF7E4
:101B100009FB20B14FF4A5710CA000F04CF8FFF7C1
:101B2000BBFB4FF47A71B0FBF1F0FFF74FFE0420DE
:101B3000FFF73DFE00221146501EFFF76FFA13B06B
:101B400030BD000040380240007000402E2E2F5360
:101B500072632F6D61696E2E630000000F4801688B
:101B600041F4700101600E48016841F0010101601B
:101B70000C4A00211160026822F4102222F08072C7
:101B80000260031D084A1A60026822F48022026083
:101B900006480160064958060860704788ED00E075
:101BA0000038024008380240103000240C3802404F
:101BB00008ED00E0FEE7FEE702E008C8121F08C1DA
:101BC000002AFAD170477047002001E001C1121FBE
:101BD000002AFBD170470000FFF796F9FFF756FF88
:101BE000FFF7B8FEFFF7A0FEFFF70AFE08227249D2
:101BF0007248FEF725FE724900208870C87072B6E0
:101C000070494AF6AA200860704DDFF8BC91C5F80B
:101C10001890DFF8BCE14FF6FC70DEF8001081424E
:101C2000FBD1DFF8B4816B48C8F800004FF6FD70B7
:101C3000DEF800108142FBD16848C8F80000C8F8FF
:101C40000000C8F80000DFF898B1DFF898A10BF5A4
:101C50008041654B91F8EA0FA0F5803691F8EB0FC3
:101C6000A0F58037ABF138002A6922F0EF0232F498
:101C70007F420AD0C5F818A02A6922F0EF0232F498
:101C80007F42F9D1C5F81890EEE7DEF80020C2F3E4
:101C90000E02028044F6FF7C624506D21BF8022049
:101CA000A2F58032C8F80020DEE7A2F5FC4CBCF5B6
:101CB000F57C01D1C8F80060A2F5FE4CBCF1EB0C3C
:101CC000D2D1C8F800702A6922F0EF0232F47F42C4
:101CD000F9D0C5F818A082684260C26882600269C3
:101CE000C2604269026182694261C2698261026ABC
:101CF000C261426A0262826A4262C26A8262026BA4
:101D0000C2622D4AD2F800C0C0F830C0D0F804C07A
:101D10008468A444C468A4440469A4444469A444F1
:101D20008469A444C469A444046AA444446AA444DD
:101D3000846AA444C46AA444046BA444A3FB0C4C6A
:101D40004FEADC0CC0F834C0D0F834C04FEADC2CC9
:101D500081F805C4D0F834C04FEADC0C81F804C423
:101D6000D2F804C04FEADC2C81F810C4D2F804C0C9
:101D70004FEADC0C81F80FC4D2F808C04FEADC2C23
:101D800081F81BC4D2F808C04FEADC0C81F81CC4EF
:101D9000D2F80CC04FEADC2C81F826C4D268D208F5
:101DA00081F825242A6922F0EF0232F47F42F9D12A
:101DB000C5F8189058E700005850002078500020CF
:101DC00048500020003000400800FFFF00000240A3
:101DD000101402400000FFFF180C02408800FFFFB3
:101DE000380000200C00FFFFABAAAAAA00061016BC
:101DF00000061016000000000000000001020304AD
:101E000006070809241E00080000002048500000B2
:101E1000C00200088429000848500020D8040000AF
:101E2000C81B0008013802FF4001FF01FF01FF311C
:101E3000144BABA910155BAEFD1F8E7243AEFF1F96
:101E40008E7443E220C210A98F8D1621A201217445
:101E50001008E8E00D21D0F874290A18151521D0D2
:101E6000F6A9808D15219C16219C17219C1A21A270
:101E70001B23291B1A211B3BA223301A3430159C2B
:101E80003E219C381A42A9FF8D01429C0B429C0CBA
:101E9000429C0D42AD104248DA08C230E22044159F
:101EA000A209188E2343A2158E162186158E024391
:101EB000A9180D8D0443A2FFFF8E0543A9018D369D
:101EC0004E192128FA6832159C2121A21D019C225D
:101ED0002103100ECAD0F728FA9C02219C0321A2EC
:101EE000801EA9F08D0421033A9C0316CAD0F1A2EA
:101EF000203909280EFA9C81219C82219C8321A2F1
:101F000008806A7B1385651975596539050011FFCD
:101F10004BAB58AE72438EFD1FAD74438DFF1F6BEC
:101F200001FF01EF100B7818FBC238A2FF1F9A22A5
:101F300012841008A2FF1D9AE220A9158D2121A26A
:101F40001394A913A0081220DC8CA91F102A40109A
:101F50008A08101C808D1520112E8E1621A21016B5
:101F60006DC0012017162A1016111ABC16111A037B
:101F70001658209C0521A9048D0721A90C8D082144
:101F8000A9148D09219C0B21A9018D0C21A9078D74
:101F90002C21352A04352BD095358A084B3A141656
:101FA0007A9D16130F8D1621201890A01602202757
:101FB00090B91790204290C01816D0F5A97F8D1ABD
:101FC00010051B0110CA1B02105E2A030A280C040C
:101FD00010A9FF8D0510A9E08D06142A07142A0800
:101FE000052A09052A0A322A10052A110F2A122366
:101FF0002A130A2A14372A15372F1610A9028D170B
:10200000142A18052A19052A1A322A20052A210F0E
:102010002A22372A230A2A24372A25372A260F2A52
:1020200027052A28052A29052A2A322A30052A3195
:102030000F2A32372A330A2A34372A35372A360FFD
:102040002A37052A38052A39052F3A10A9208D800C
:102050000A1D8110A903052D49FF8D82962A83143C
:102060002A84052A85552A86052A870F2A88052667
:102070008910C220A212BD13A49F16247FE88AC92A
:102080003C18D0F21113A09D2A1E103C01D0F31071
:1020900013C89F2A10211010C201D0F2E220206044
:1020A000909C1640A9818D180C42C2308B48DA5A98
:1020B0000BE2205C4201FF01CD100B8E02438D0428
:1020C000438C05439C780D43A9228D0143A9018DC2
:1020D0000B426017190F19197A181901FF01FF0136
:1020E000FF01D35809060206021802B078016AB34C
:1020F00009180CA9AACD4021D0FBA9BBCD410738B6
:1021000014608C4221AD4021186922D0011A8D4102
:10211000218D40211F22A01A600F1A98103AC81171
:102120001560DAA0F23F202790682042041360A5D2
:10213000280CEBAD8310EB095DAA2050900D1A849A
:102140000D6A3D0D1A850D6A4D0D1A800D6A6C0DD4
:102150001A820D6A5C0D1A810D6A4C0D1A880D6A7F
:102160002C0D1A890D6A3C0D1A860D6A0C0D1A8702
:102170000D2A1C0D02FF6001FF01FF01221CFF015F
:10218000FF0321131040021250123E7A6302323EC6
:10219000120C1A1C0449027A1E20120E1218123058
:1021A0009A7F106930120E121612261A661C1A0631
:1021B0000221127F12601A7E1C5A03202930491214
:1021C00049101A7F0812041A08502902695069063A
:1021D00069107A3F4029261A2C02123E124632EF2D
:1021E000127E1A31023A3E06327E1A3D281A616288
:1021F0001A61022930492049022920291012341A73
:102200003C043A31C0891012303278FAFF029A81C8
:102210000249105ABD0229102112FE7A82023AFEAA
:10222000101A800212FE1A0202891049022910BAFD
:102230000402213A3C08123C1A20027A3C105A1C33
:1022400016213A240249162930211A900212F71257
:1022500091129202FF970144121412151216DA1706
:1022600010DA1810DA191002491A7A1206890A09C6
:102270002A10018A0A3D1B10017C0A3D121009FD3B
:102280008009FD8001FF01FF01CE1201120212033D
:10229000120412051206120712081209120A120B72
:1022A000120C120D120E02230F121112121213121F
:1022B0001412151216121712181219121A121B12D2
:1022C0001C121D121E02351F122A122B122C122D47
:1022D000122E02FF2F01421010C2308B48DA5A0B27
:1022E000E220A9808D1521A21C0C8E16061540A98E
:1022F0007FA0100E088E02438D04438C0543A90174
:102300008D2E43A9188D010A0010FF0B42AD10421B
:10231000C2302B7AFA68ABE2204001FF01FF01C214
:1023200017A90F8D0242AD17108D03426203480BAF
:1023300082EF03EAC220AD16424A0127E2208D0B4C
:1023400010A01009A28206E220A9119F1009407F67
:10235000C2208A38E940100CAAE220C898CD0B10A0
:10236000D0E7A9E9174DC90FD0EA586A1058EB0F0A
:1023700004583A1B580A1492580A1D1B586A2058D0
:10238000FA2F583A2B580A14A2580A1D2B586A30B3
:1023900058FA4F583A3B580A14B2580A173B582972
:1023A0004D3B7A04073B9312074AB2071B8D136219
:1023B000180CAFC0117FCFC2117FF022AF0614AA54
:1023C000BF0A247FAAA92949291B59113A13112EA2
:1023D000E220AD03108D1E1A8F82427F0C1E290F42
:1023E0001A8F840A5A02163A860C29161A880A5A33
:1023F00013163A920C29161A940A5A12163A960C87
:1024000029161A980A5A23163AA20C29161AA40A4F
:102410005A22163AA60C29161AA80A5A33163AB2A4
:102420000C29161AB40A5A32163AB60C291616B8DE
:10243000427FA20222A012BD13C499680B10E8C803
:102440008AC906D0F3A20D133A10131A11136A1891
:10245000133A20131A1C136A23133A30131A271342
:102460006A34133A86131636D0F3CB4C02FF24019C
:102470004212A513EBAD1410EB0914AA62032D82CE
:10248000F301EA111A01113A01114AE2111A02117B
:102490003A02114AD1111A03113A03114AC0111A12
:1024A00004113A04114AAF111A05113A05114A9E56
:1024B000111A06113A06112D8D01EA60121A101236
:1024C0003A10124A7B231A11113A11114A6A111A51
:1024D00012113A12114A59111A13113A13114A489A
:1024E000111A14113A14114A37111A15113A15110B
:1024F0004A26111A16113A16115A15781A20123A4C
:1025000020124A03231A21113A211112F239111A09
:1025100022113A22114AE1111A23113A23114AD009
:10252000111A24113A24114ABF111A25113A251102
:102530004AAE111A26113A2611129D49781A301204
:102540003A30124A8B231A31113A31114A7A111A50
:1025500032113A32114A69111A33113A33114A5879
:10256000111A34113A34114A47111A35113A3511FA
:102570004A36111A36113A36115A25781A86123A05
:102580000C124A13231A87113A1C111A022314DA67
:10259000A0F220198C4221AD4021186922D0011AE5
:1025A0008D41218D4021CD4021D0FBA01A680F1A0A
:1025B00098103AC811C90E02FF6001FF01FF01FF28
:1025C00001FF01FF01FF01FF01FF01FF01FF01FF0B
:1025D00001FF01CF100BAD12422901D0F9C220AE8C
:1025E000160FAD18428D140F8A4D130F2D2E0F8D1F
:1025F000020F8A072810040FE22060C220AFC0112A
:102600007F8FC2117F0823AABF5B7F4A0113290F66
:1026100013C90115F019C90215F027C90515F035C0
:10262000C90815F050C90A15F05EC90E17F079AD4A
:10263000020FC91608D008BF021B7F8F3E194F3901
:10264000131A0213CA0413992612C91A040DCA06D2
:10265000201A01130A170846092020995309122D40
:102660005C80F001EA12C9101510F015C92A10F0AB
:1026700041C95410F06DC97E10D0038296192810FC
:1026800011E220AD0710C901F01AA9018D0710A2AF
:102690005C136203280882BCF0EAA24C010A2EB245
:1026A000F0EA609C18390E1AA40E19311D1710C9D2
:1026B00002316C028D17312A8B312A020A2A8131AC
:1026C0002918390E4A73311D2710C904316C048D45
:1026D00027312A5A312A040A2A50312918390E4A38
:1026E00042311D3710C908316C088D37312A293124
:1026F0002A080A2A1F312918390E1A110E01FF0162
:10270000FF0122120F121F12311A6002527012833F
:102710001AC7021A0702520F1A0C021A8C021A98D0
:1027200002411A7F02292E126052C012C31A872258
:102730001A1802521C12E05AF04A613A03023A0691
:10274000024112F012FC9A0E101A3F025A30524106
:102750001AC0421A61021A635A41123C1AFE903A98
:1027600083464990121C3A1E02523E5A31022932C7
:10277000411AFF303A8002011C52011A7E7C1A0372
:102780000C1AC16C12FE5A7CEA29EC29D012183AB4
:10279000D80212D93A71021A31241AFEA03AC05E48
:1027A000290C121F520F1A30F21A3F0E1A80BC3A2F
:1027B000E0CA2924211A06EA5A0C021A1F0229F437
:1027C000290C121812381AF1761A7FAE1AC1022992
:1027D000541A81025A86023AC6F23A81F4493412F6
:1027E0001C16E01DE0123349021A61021E21C620A8
:1027F0004963F412631A673019321518C324F86A52
:10280000F8DFD60388726892127802B14812321249
:10281000261A240281125112D11292928C1A450268
:1028200012491231120252031A1202122612E41233
:102830002052C012F81280129002FF6001FF01FFC7
:1028400001FF01FFF1137F7F12018CFFE0010B8A72
:10285000020B9921411C2003FC1D191101FF01FFEE
:1028600001FF01CD62082D0E10C20107312F10A803
:10287000101C10C80E2A0A18215C2A10CC0E1A1C33
:102880000E5C3810D22A58082A10B6104610D81CF0
:102890001A381C5C5410DC0E1A460E5C6210E22AD8
:1028A00058085410C4107010E81C1A621C5C7E108A
:1028B000EC0E1A700E5C8C10F22A28087E10D210D2
:1028C0009A10F80E2A021829822AFC0E2A058A1A62
:1028D000E0042B48030E296E1AEE043A580E2952D2
:1028E0001AFC043A680E2936230A113A780E1AA8FF
:1028F0000E1A180E3AC80E1AB60E1A260E3AD80E2E
:102900001AC40E1A340E3AE80E1AD20E1A420E3AB1
:10291000F80E296C1A500E2B48040E296C1A5E0E04
:102920003A580E296C1A6C0E3A680E296C2A7A7085
:10293000390E296C2A8870390E296C2A9670390E46
:10294000296C2AA470390E296C2AB270290E2A012A
:102950006C412B48050E296C413A580E296C413ABE
:10296000680E296C411A780E296A01FF01FF01FFE8
:1029700001FF01FF01FF012D02141E32018210131D
:0429800024F400003B
:04000005080001C529
:00000001FF
