:020000040800F2
:10000000E05400200D020008871B0008AF1800080C
:10001000851B0008FD040008CD1C0008000000003E
:100020000000000000000000000000008B1B000822
:10003000FF05000800000000891B00088D1B000858
:1000400027020008270200082702000827020008EC
:1000500027020008270200082702000827020008DC
:1000600027020008270200082702000827020008CC
:1000700027020008270200082702000827020008BC
:1000800027020008270200082702000827020008AC
:10009000270200082702000827020008270200089C
:1000A000270200082702000827020008270200088C
:1000B000270200082702000827020008270200087C
:1000C000270200082702000827020008270200086C
:1000D000270200082702000827020008270200085C
:1000E000270200082702000827020008270200084C
:1000F000270200082702000827020008270200083C
:10010000270200082702000827020008270200082B
:10011000270200082702000827020008270200081B
:10012000FF04000827020008270200082702000831
:1001300027020008270200082702000827020008FB
:1001400027020008270200082702000827020008EB
:1001500027020008270200082702000827020008DB
:1001600027020008270200082702000827020008CB
:1001700027020008270200082702000827020008BB
:1001800027020008270200082702000827020008AB
:10019000270200082702000827020008270200089B
:1001A000270200082702000827020008270200088B
:1001B000270200082702000827020008270200087B
:1001C000270200082702000800000000270200089C
:1001D000270200082702000827020008270200085B
:1001E000270200082702000827020008270200084B
:1001F0002702000827020008DFF80CD000F068F89A
:1002000000480047EF1C0008E054002006488047E3
:1002100006480047FEE7FEE7FEE7FEE7FEE7FEE7EB
:10022000FEE7FEE7FEE7FEE7691C0008F9010008AB
:100230002DE9F05F0546002092469B46884606461B
:10024000814640241BE0284641464746224600F0AE
:100250002FF853465A46C01A914110D311461846FA
:10026000224600F016F82D1A67EB01084F46224689
:100270000120002100F00DF817EB00094E41201E6F
:10028000A4F10104DFDC484631462A464346BDE876
:10029000F09F202A04DB203A00FA02F10020704788
:1002A0009140C2F1200320FA03F3194390407047B4
:1002B000202A04DB203A21FA02F00021704721FABB
:1002C00002F3D040C2F12002914008431946704722
:1002D000064C074D06E0E06840F0010394E8070093
:1002E00098471034AC42F6D3FFF78AFF301F00085E
:1002F000501F000870B58C1810F8015B15F007034B
:1003000001D110F8013B2A1106D110F8012B03E0AE
:1003100010F8016B01F8016B5B1EF9D12B0705D4B6
:100320000023521E0DD401F8013BFAE710F8013BFF
:10033000CB1A921C03E013F8015B01F8015B521E1B
:10034000F9D5A142D8D3002070BD024610B5906BFC
:10035000016C11F0500F05D0806BC16C1046BDE8E8
:1003600010400847016C41F40071016401688A681B
:1003700012F0405F19D18269BAB9CA6A12F4700FDB
:1003800003D08A6812F4806F0FD14A6822F02002ED
:100390004A60016C21F480710164016C11F4805F8A
:1003A00003D1016C41F00101016400F0F3F910BDCB
:1003B00010B5806B40210164416C41F0040141643F
:1003C00000F0EAF910BD10B5806B00F0E4F910BD43
:1003D00042F20431C4F201010A6822F440320A6098
:1003E0000A6843681A430A6001684A6822F4807206
:1003F0004A6001684A68036942EA03224A60016868
:100400004A6822F040724A6001684A6883681A4369
:100410004A6001688A6822F400628A6001688A681A
:10042000C3681A438A60816A6FF07062D14214D047
:1004300001688A6822F070628A6001688A68836A4B
:100440001A438A6001688A6822F040528A60016813
:100450008A68C36A1A438A6009E001688A6822F0E0
:1004600070628A6001688A6822F040528A6001687E
:100470008A6822F002028A6001688A68836942EA17
:1004800043028A60016A89B101684A6842F40062E5
:100490004A6001684A6822F460424A6001684A681A
:1004A000436A5B1E42EA43324A6004E001684A68DC
:1004B00022F400624A600168CA6A22F47002CA62C9
:1004C0000168CA6A838B5B1E42EA0352CA620168F2
:1004D0008A6822F400728A6001688A68036B42EAC3
:1004E00043228A6001688A6822F480628A60016817
:1004F0008A68406942EA802088607047FEE745F2DA
:100500007C00C2F2000000F064BA01684AF6AB2336
:10051000CAF6AA23CAB2103AA3FB0232120941F664
:10052000EC63C0F600039B5CC365032A04D96FF338
:100530000901091D816502E06FF309018165806D84
:100540007047014600208A6A8B69002B0FD0B3F5F3
:10055000005F1DD08AB3012A30D0022A2ED0032A90
:1005600004D1C96A11F0807F00D0012070471AB110
:10057000012A07D0022AF9D1C96A11F0807FF5D08B
:1005800001207047C96AB1F1C07FFAD101207047DC
:100590005AB1012A0BD0022A07D0032AF7D1C96A1F
:1005A000B1F1C07FF3D10120704701207047C96AC3
:1005B00011F0807FFAD001207047FFE701207047DB
:1005C0004DF8044DD0F800C0DCF8004024F480243D
:1005D000CCF80040D0F800C0CCF804308368402B41
:1005E00006D0036899600068C2605DF8044B7047EC
:1005F00003689A600068C1605DF8044B70477047FB
:1006000078B44FF0000CCDF800C090F83C20012ADF
:100610001DD0012280F83C200A6812240725092AEF
:10062000C1F2000420D90368DE680A3A02EB4202F4
:1006300005FA02F226EA0202DA600A68A24209D149
:100640000268D3680D7A43EA0563D3601EE078BC84
:10065000022070470A3A8B6802EB4202934002681C
:10066000D5682B43D36011E003681E6902EB420298
:1006700005FA02F226EA02021A610A788B6802EB96
:1006800042029340026815692B4313614A681F2593
:10069000072A15D203685E6B521E02EB820205FA2E
:1006A00002F226EA02025A630A8893B20A79521EBB
:1006B00002EB820293400268556B2B4353632CE09C
:1006C0000D2A15D203681E6BD21F02EB820205FAB7
:1006D00002F226EA02021A630A8893B20A79D21F4A
:1006E00002EB820293400268156B2B43136314E004
:1006F0000368DE6A0D3A02EB820205FA02F226EA8C
:100700000202DA620A8893B20A790D3A02EB820297
:1007100093400268D56A2B43D36202684FF40053BA
:10072000C4F201039A4208D10A68122A05D1D3F80B
:10073000042342F48002C3F8042302689A4224D1BD
:100740000A68A24201D0112A1FD1D3F8042342F42F
:100750000002C3F804230968A14216D145F2100132
:10076000C2F20001096844F24022C0F20F02B1FB5C
:10077000F2F101EB810149000091009929B1009942
:10078000491E009100990029F9D180F83CC0002051
:1007900078BC704770477047704770B504460025B5
:1007A000002C03D0206C002610B107E0012070BDA2
:1007B000666484F83C60204600F01AF8206C10F063
:1007C000100F04D0012584F83C60284670BD206CD1
:1007D00020F4885040F0020020642046FFF7F8FD26
:1007E0006664206C20F0020040F001002064EAE71B
:1007F00070B586B005462868A0F18041B1F590310A
:1008000045D143F64400C4F20200016841F480710E
:100810000160006800F4807000903F200190032484
:100820000294002603964FF40060C4F2020001A96E
:1008300000F079FA0194029403964FF48060C4F2B8
:10084000020001A900F06FFA46F21040C4F2020063
:1008500045F27C04C2F2000420606660A660E66097
:1008600000152061800060618000A0618011E0615E
:1008700026626662204600F0A3F930B1812141F67C
:100880001470C0F6000001F022FAAC63A56306B054
:1008900070BD38B504460023009394F83C0001284D
:1008A00009D0012084F83C002068D0F808C01CF072
:1008B000010F02D01DE0022038BDD0F808C04CF076
:1008C000010CC0F808C045F21000C2F20000006838
:1008D00044F2402CC0F20F0CB0FBFCF000EB4000E7
:1008E0000090009828B10098401E009000980028C1
:1008F000F9D12068D0F808C01CF0010F67D0D4F8F7
:1009000040C02CF0010C2CF4C06C4CF4807CC4F87A
:1009100040C0406810F4806F05D0206C20F4005077
:1009200040F480502064206C10F4805F04D0606C30
:1009300020F00600606400E0636484F83C3040F21C
:100940004B30C0F60000A36BD86340F2C730C0F64E
:100950000000A36B186440F2B130C0F60000A36B36
:10096000D8646FF02200236818602068436843F061
:10097000806343602068836843F4807383602068E9
:1009800013460A4600F14C0CA06B614600F08EF94C
:100990004FF40051C4F20101D1F8040310F01F0F0D
:1009A00007D02068884212D1816811F0405F0AD0D8
:1009B0000DE02068816811F0405F08D1816841F046
:1009C0008041816003E0816841F0804181600020C6
:1009D00038BD2DE9F84304464FF00008CDF80080FB
:1009E00045F21000C2F2000000684FF41651B0FB4F
:1009F000F1F7A56D2E68082194F85C0001FA00F06B
:100A0000304211D02068026812F0040F0CD0026846
:100A100022F00402026094F85C0001FA00F0A86081
:100A2000606D40F00100606594F85C004FF00109D2
:100A300009FA00F0304209D02168496911F0800FAD
:100A400004D0A860606D40F00200606594F85C100E
:100A500004208840304209D02168096811F0020F53
:100A600004D0A860606D40F00400606594F85C10EC
:100A700010208840304224D02168096811F0080F06
:100A80001FD0A8602068016811F4802F0DD0006885
:100A900010F4002F04D0A16C99B12046884710E0D3
:100AA000216C71B1204688470BE0016811F4807F0A
:100AB00003D1016821F008010160216C09B12046D1
:100AC000884794F85C1020208840304251D021683B
:100AD000096811F0100F4CD0A86094F83500052873
:100AE0000DD02068016811F4802F32D0006810F416
:100AF000002F29D0E16B59B32046884739E02068A0
:100B0000016821F0160101602068416921F080012F
:100B10004161206C08B9A06C20B12068016821F007
:100B20000801016094F85C003F2101FA00F0A86020
:100B300084F8348084F83590216D00293ED001B0CE
:100B40002046BDE8F0430847616C09B1204688475C
:100B50000FE0016811F4807F07D1016821F01001D6
:100B6000016084F8348084F83590E16B09B1204647
:100B70008847606D002821D0606D10F0010F15D0FE
:100B8000052084F835002068016821F0010101602A
:100B90000098401C0090B84204D82068006810F00B
:100BA000010FF5D184F8348084F83590E16C002988
:100BB00004D001B02046BDE8F0430847BDE8F88303
:100BC0002DE9F041044600F0DAF90546DCB10026D3
:100BD00084F83460022084F835002068016821F030
:100BE000010101602068006810F0010F13D000F0CF
:100BF000C6F9401B052809D920206065032084F828
:100C00003500BDE8F0810120BDE8F0812068006872
:100C100010F0010FEBD12168086848F23F02CEF2D4
:100C200010021040A3686268D4F810C01A43E36849
:100C300043EA0C031A4363691A43A3691A43E3693D
:100C40001A43236A1A431043626A042A03D1236BAE
:100C5000E26A1A43104308602068406920F00701E7
:100C6000606A40EA0105012704280ED1A06A054305
:100C7000E06A50B12046FFF764FC30B14020606567
:100C800084F835700120BDE8F08120684561204678
:100C9000FFF73BFC94F85C103F2202FA01F18160FF
:100CA000666584F835700020BDE8F08170B50446B3
:100CB0000025A66D94F8340001280DD0012084F899
:100CC000340094F835C00020BCF1010F06D084F840
:100CD00034000225284670BD022070BD4FF0020C82
:100CE00084F835C060652046FFF76AFC94F85C0024
:100CF0003F2101FA00F0B0602068016841F0160160
:100D000001602068416941F080014161206C20B19F
:100D10002068016841F0080101602068016841F025
:100D200001010160D6E72DE9F84F002243F644089F
:100D30004FF470594FF0010EC4F201090F27C4F2AD
:100D4000020809F1040A0EFA02F50B682B40AB42C7
:100D50007DD1D1F804C0BCF1020F02D0BCF1120F5A
:100D600014D14FEAD20C00EB8C04266A4FEA427C85
:100D70004FEADC6C07FA0CFB26EA0B06D1F810B040
:100D80000BFA0CFC4CEA060CC4F820C006680324DD
:100D90004FEA420C04FA0CF4A64391F804B00BF0AD
:100DA000030B0BFA0CFB4BEA060606604E68012E9D
:100DB00005D0022E03D0112E01D0122E11D186683B
:100DC000A643D1F80CB00BFA0CFB4BEA0606866082
:100DD000466826EA05050E79C6F3001696403543A7
:100DE0004560C56825EA04048D6805FA0CFC4CEAE8
:100DF000040CC0F80CC0D1F804C01CF0805F26D0F1
:100E0000D8F800C04CF4804CC8F800C0D8F800C036
:100E10000CF4804CCDF800C022F0030C0CF180459E
:100E200005F59835D5F808C89407240F07FA04F695
:100E30002CEA0606A0F1804CBCF5003C77D0A0F16E
:100E4000804CBCF5013C75D0A0F1804C00E065E021
:100E5000BCF5023C71D0A0F1804CBCF5033C72D0D3
:100E6000A0F1804CBCF5043C70D0A0F1804CBCF5E6
:100E7000053C6ED0A0F1804CBCF5063C6CD0A0F1D6
:100E8000804CBCF5073C6AD0A0F1804CBCF5083C16
:100E900068D0A0F1804CBCF5093C66D04FF00A0C3C
:100EA0000CFA04FC4CEA060CC5F808C8D9F800C0D6
:100EB0002CEA030C4C6814F4803F01D04CEA030C7C
:100EC000C9F800C0DAF800C02CEA030C4C6814F42E
:100ED000003F01D04CEA030CCAF800C043F60844B6
:100EE000C4F20104D4F800C02CEA030C4D6815F4D8
:100EF000801F01D04CEA030CC4F800C043F60C4438
:100F0000C4F20104D4F800C02CEA030C4D6815F4B7
:100F1000001F01D04CEA030CC4F800C0521C102A78
:100F2000FFF411AFBDE8F88F01E003E005E04FF0FA
:100F3000000CB5E74FF0010CB2E74FF0020CAFE741
:100F400001E003E005E04FF0030CA9E74FF0040CCB
:100F5000A6E74FF0050CA3E74FF0060CA0E74FF013
:100F6000070C9DE74FF0080C9AE74FF0090C97E744
:100F7000002A01D08161704709048161704745F200
:100F80000400C2F200008068704745F20400C2F21B
:100F900000008168027811448160704710B54FF4F9
:100FA0007050C4F20200016841F4007101600168F0
:100FB00041F480710160032000F0B1F8012000F0DD
:100FC00004F800F025F8002010BD70B5044645F285
:100FD0000405C2F2000528784FF47A71B1FBF0F0F5
:100FE00045F21001C2F200010968B1FBF0F000F017
:100FF00045FC08B1012070BD102C07D2002221460B
:10100000501E00F055F86C60002070BD012070BDCE
:1010100008B54FF46150C4F20200016841F08051FC
:101020000160006800F08050009043F64400C4F274
:101030000200016841F480410160006800F48040D2
:101040000090032000F06BF800226FF00B001146B7
:1010500000F02EF800226FF00A00114600F028F888
:1010600000226FF00900114600F022F80022501F04
:10107000114600F01DF80022101F114600F018F86C
:101080000022901E114600F013F800220121BDE855
:101090000840881E00F00CB8012200F01F0102FA7F
:1010A00001F14009800000F1E020C0F80011704714
:1010B0004DF8044D4EF60C53CEF200031B68C3F3FB
:1010C0000223C3F1070CBCF1040F01D94FF0040C4B
:1010D0001C1D072C01D2002300E0DB1E012404FAB2
:1010E0000CFCACF1010C0CEA0101994004FA03F389
:1010F0005B1E1A401143002809DA00F00F0000F1CE
:10110000E020090180F8141D5DF8044B704700F1E0
:10111000E020090180F800145DF8044B704700F0EE
:1011200007004EF60C52CEF2000211684FF6FF0394
:10113000194041EA002040F0FD7040F080601060EE
:10114000704738B54FF46150C4F20200016841F0B5
:1011500080510160006800F0805000904FF4E0443E
:10116000C4F20004206840F480302060FFF707FFDD
:101170000546606810F4803F0BD1FFF700FF401B6D
:10118000B0F57A7F01D9032038BD606810F4803F44
:10119000F3D0206840F400302060FFF7F0FE0546F1
:1011A000606810F4003F0BD1FFF7E9FE401BB0F57B
:1011B0007A7F01D9032038BD606810F4003FF3D076
:1011C000002038BD2DE9F04704460D46002C19D00B
:1011D0004FF47058C4F20208D8F8000000F00F0075
:1011E000A84212D2D8F8000020F00F002843C8F817
:1011F0000000D8F8000000F00F00A84205D0012040
:10120000BDE8F0870120BDE8F087206843F60807B5
:10121000C4F2020710F0020F14D010F0040F03D034
:10122000386840F4E0503860207810F0080F03D0A0
:10123000386840F460403860386820F0F001A068F9
:1012400008433860207810F0010F3ED060684FF4FA
:101250006051C4F20201012806D002280BD00968AF
:1012600011F0020F27D00AE0096811F4003F06D1FF
:101270000120BDE8F087096811F0007F18D03968B7
:1012800021F0030108433860FFF779FE064638680D
:10129000616800F00C00B0EB810F16D041F2883984
:1012A000FFF76DFE801B484508D90320BDE8F08795
:1012B0000120BDE8F0870120BDE8F087386861684B
:1012C00000F00C00B0EB810FEAD1D8F8000000F07C
:1012D0000F00A8420FD9D8F8000020F00F002843D3
:1012E000C8F80000D8F8000000F00F00A84202D0B3
:1012F0000120BDE8F087207810F0040F05D0386891
:10130000E16820F4E05008433860207810F0080FBE
:1013100006D03868216920F4604040EAC100386096
:1013200000F01AF83968C1F3031141F6F462C0F60F
:101330000002515CC84045F21001C2F20001086091
:101340000120FFF742FE0020BDE8F08745F21000C3
:10135000C2F200000068704710B543F60800C4F2FE
:101360000200006810F00C014FF41050C0F2F400BD
:101370001CD047F640030429C0F27D1315D008297C
:1013800014D143F60404C4F20204216801F03F02C0
:10139000216811F4800F0AD02068C0F38810A0FBE8
:1013A00003010023FEF744FF09E0184610BD216841
:1013B0000023C1F38811A1FB0001FEF739FF21686A
:1013C000C1F30141491C4900B0FBF1F010BD2DE90A
:1013D000F84F04460027002C18D043F60808207860
:1013E000C4F20208A8F1040610F0010FA6F10405EA
:1013F00070D0D8F8000000F00C0004280DD0D8F808
:10140000000000F00C00082803D010E00120BDE827
:10141000F88F306810F4800F09D0286810F4003F6E
:1014200058D06068002855D10120BDE8F88F606869
:10143000B0F5803F15D0C8B1B0F5A02F1FD02868F7
:1014400020F480302860286820F4802028606068BC
:1014500060B3FFF794FD8146286810F4003F17D071
:1014600038E0286840F480302860F0E7286820F4ED
:1014700080302860286820F480202860E7E728680A
:1014800040F480202860286840F480302860DEE73F
:10149000FFF775FDA0EB0900642802D90320BDE821
:1014A000F88F286810F4003FF2D013E0FFF767FDD3
:1014B0008146286810F4003F0CD0FFF760FDA0EBD8
:1014C0000900642802D90320BDE8F88F286810F4C9
:1014D000003FF2D1207810F0020F5CD0D8F8000065
:1014E00010F00C0F17D0D8F8000000F00C000828FE
:1014F00003D1306810F4800F0DD0E06890B32868F5
:1015000040F001002860FFF73AFD8146286810F09E
:10151000020F12D01EE0286810F0020F05D0E0681C
:10152000012802D00120BDE8F88F2868216920F049
:10153000F80040EAC10028602DE0FFF720FDA0EB95
:101540000900022802D90320BDE8F88F286810F0AE
:10155000020FF2D02868216920F0F80040EAC100AB
:10156000286018E0FFE7286820F001002860FFF7F6
:1015700006FD8146286810F0020F0CD0FFF7FFFC33
:10158000A0EB0900022802D90320BDE8F88F2868E3
:1015900010F0020FF2D1207810F0080F3ED06069F1
:1015A00043F6740AC4F2020AE0B1DAF8000040F02F
:1015B0000100CAF80000FFF7E2FC8146DAF80000FB
:1015C00010F0020F2AD1FFF7DAFCA0EB0900022885
:1015D00002D90320BDE8F88FDAF8000010F0020FFE
:1015E000F1D01BE0DAF8000020F00100CAF800009A
:1015F000FFF7C5FC8146DAF8000010F0020F0DD0AD
:10160000FFF7BDFCA0EB0900022802D90320BDE8CA
:10161000F88FDAF8000010F0020FF1D1207810F006
:10162000040F7BD04FF4615AC4F2020ADAF80000CA
:1016300010F0805F0BD1DAF8000040F08050CAF85B
:101640000000DAF8000000F08050009001274FF40D
:10165000E04BC4F2000BDBF8000010F4807F1BD1DC
:10166000DBF8000040F48070CBF80000FFF787FC47
:101670008146DBF8000010F4807F0DD1FFF77FFC7E
:10168000A0EB0900642802D90320BDE8F88FDBF83D
:10169000000010F4807FF1D0A06843F6700BC4F214
:1016A000020B012819D0F8B105282AD0DBF8000078
:1016B00020F00100CBF80000DBF8000020F004006F
:1016C000CBF80000A06850B3FFF759FC8146DBF867
:1016D000000010F0020F23D04BE0DBF8000040F0D8
:1016E0000100CBF80000EDE7DBF8000020F001007E
:1016F000CBF80000DBF8000020F00400CBF800007D
:10170000E0E7DBF8000040F00400CBF80000DBF875
:10171000000040F00100CBF80000D3E731E010E01A
:10172000FFF72DFCA0EB090141F28830814202D97C
:101730000320BDE8F88FDBF8000010F0020FEFD0B7
:1017400017E0FFF71CFC8146DBF8000010F0020FE9
:101750000FD0FFF714FCA0EB090141F28830814261
:1017600002D90320BDE8F88FDBF8000010F0020F6B
:10177000EFD1012F05D1DAF8000020F08050CAF82F
:101780000000A069E0B3D8F8001001F00C010829AE
:1017900062D0022812D0286820F080702860FFF7FD
:1017A000EEFB0446286810F0007F52D0FFF7E7FBFD
:1017B000001B022849D90320BDE8F88F286820F0D3
:1017C00080702860FFF7DBFB0746286810F0007F79
:1017D0000BD0FFF7D4FBC01B022802D90320BDE8C1
:1017E000F88F286810F0007FF3D1216A4FF0FF33A3
:1017F000E069A26A0843616A03EB5202890100E0D2
:1018000027E041EA0241084394F82C1040EA0160C5
:1018100094F8301040EA01703060286840F0807021
:101820002860FFF7ACFB0446286810F0007F10D159
:10183000FFF7A5FB001B022802D90320BDE8F88FA3
:10184000286810F0007FF3D003E0286810F0007FD4
:10185000ACD10020BDE8F88F0120BDE8F88F042846
:101860004FF0E02104D0086920F0040008617047BF
:10187000086940F00400086170477047401EB0F1ED
:10188000807F01D3012070474FF0E02148614EF680
:101890002352CEF20002F020107000208861072051
:1018A00008610020704710B5FFF7E7FF10BDFEE7A5
:1018B00070B584B04FF40051C4F2010145F2140038
:1018C000C2F2000001604FF4803141600025856064
:1018D0000124046184610562C5620121C0F60071C2
:1018E0008162C5600826C66104634461FEF755FF46
:1018F00038B140F2311141F60470C0F6000000F03A
:10190000E6F9009601940295694645F21400C2F288
:101910000000FEF775FE38B140F23B1141F604704D
:10192000C0F6000000F0D3F90920009002200190D9
:10193000694645F21400C2F20000FEF761FE38B1BC
:101940004FF4A27141F60470C0F6000000F0BFF938
:101950000A20009003200190694645F21400C2F26B
:101960000000FEF74DFE38B140F24D1141F6047013
:10197000C0F6000000F0ABF90B20009004200190AD
:10198000694645F21400C2F20000FEF739FE38B194
:101990004FF4AB7141F60470C0F6000000F097F907
:1019A0000C20009005200190694645F21400C2F217
:1019B0000000FEF725FE38B140F25F1141F60470D9
:1019C000C0F6000000F083F90D2000900620019081
:1019D000694645F21400C2F20000FEF711FE38B16C
:1019E0004FF4B47141F60470C0F6000000F06FF9D6
:1019F0000E20009007200190694645F21400C2F2C3
:101A00000000FEF7FDFD38B140F2711141F604709F
:101A1000C0F6000000F05BF90F20009001966946C7
:101A200045F21400C2F20000FEF7EAFD002807D0DC
:101A30004FF4BD7141F60470C0F6000000F047F9A4
:101A400004B070BD08B543F63000C4F2020001686E
:101A500041F480010160006800F4800000900022E1
:101A600038201146FFF724FBBDE808403820FFF777
:101A700013BB2DE9F04387B043F63000C4F20200F7
:101A8000016841F020010160016801F0200101912D
:101A9000016841F004010160016801F00401019155
:101AA000016841F001010160016801F0010101914B
:101AB000016841F002010160016801F00201019139
:101AC000016841F008010160006800F00800019021
:101AD0000027C4F20207012238468E21FFF748FA98
:101AE00001224FF48068C4F20208D1034046FFF798
:101AF0003FFA4FF44069C4F2020901224846FF212F
:101B0000FFF736FA4FF6FF70029000240394049416
:101B10004FF4A050C4F2020002A9FFF704F90E200E
:101B200002900125039504940326059602A93846E0
:101B3000FFF7F9F84FF4B87002900394049402A9E7
:101B40003846FFF7F0F880200290039502200490B9
:101B5000059602A93846FFF7E6F8E80302900395D8
:101B60000494059602A94046FFF7DDF8FF20029095
:101B700003950495059602A94846FFF7D4F807B0E7
:101B8000BDE8F083FEE770477047704710B5FFF778
:101B9000FCF9BDE81040FFF786BE30B593B04FF4B6
:101BA0006150C4F20200016841F080510160006898
:101BB00000F0805000904FF4E040C4F20000016853
:101BC00041F440410160006800F44040009002246C
:101BD00006940120099010200A900C9400250D9580
:101BE00008200E90D8200F901094119406A8FFF7AB
:101BF000EEFB30B1F72141F60470C0F6000000F0B2
:101C000066F8FFF79EFA30B1FE2141F60470C0F687
:101C1000000000F05CF80F200190029403954FF44F
:101C2000A05004904FF480500590072101A8FFF7C1
:101C3000C9FA38B14FF4867141F60470C0F600005D
:101C400000F045F8FFF782FB4FF47A71B0FBF1F03A
:101C5000FFF714FE0420FFF702FE01210022881E78
:101C6000FFF726FA13B030BD4EF68850CEF20000D2
:101C7000016841F4700101604FF46050C4F2020049
:101C8000016841F00101016043F60802C4F202025A
:101C900000211160026822F4102222F0807202609A
:101CA000031D43F21002C2F200421A60026822F4DD
:101CB0008022026043F60C00C4F2020001604EF67E
:101CC0000851CEF20001580608607047FEE7FEE7B3
:101CD00002E008C8121F08C1002AFAD170477047F5
:101CE000002001E001C1121F002AFBD1704786B01D
:101CF00072B6BFF34F8FBFF36F8F4EF65070CEF2B8
:101D00000000002707604EF61455CEF20005286843
:101D100040F400302860BFF34F8FBFF36F8F4EF653
:101D20008450CEF200000760BFF34F8F001F0068A1
:101D3000C0F34E3C4EF66071CEF2000143F6FF76E2
:101D4000C0F3C904204606EA4C1242EA80730B60D5
:101D5000401EFAD2BCF1010CF4D2BFF34F8F2868B9
:101D600040F480302860BFF34F8FBFF36F8FFFF7D1
:101D700015F9FFF712FFFFF77CFEFFF763FEFFF791
:101D800097FD082245F25C01C2F20001A1F1480072
:101D9000FEF77FFD4FF440514AF6AA20C4F200013D
:101DA000086008260025C4F20205CFF6FF76284613
:101DB000AE6140F61844C4F202044FF00008CFF6BA
:101DC000FF78C4F80080802101910297039701A950
:101DD000FEF7A9FF41F2104A4FF6FC70C4F2020A66
:101DE000DAF800108142FBD1C4F800804FF6FD7094
:101DF000DAF800108142FBD18820CFF6FF70206016
:101E000040F20208C2F2000808F5804147F6EA7E77
:101E1000A8F1020B91F8EA0FA0F5803C91F8EB0FC6
:101E2000A0F5803045F25C09C2F200090C27CFF61C
:101E3000FF772A6922F0EF0232F47F4208D0AF61C7
:101E40002A6922F0EF0232F47F42F9D1AE61F0E765
:101E5000DAF80020C2F30E02ABF8002044F6FF735C
:101E60009A4205D218F80220A2F580322260E0E7FB
:101E7000724501D1C4F800C0A2F5FE43EB3BD8D1B6
:101E800020602A6922F0EF0232F47F42F9D0AF617C
:101E9000D9F80020120A81F80524D9F8002081F829
:101EA0000424D9F80420120A81F81024D9F8042057
:101EB00081F80F24D9F80820D20A81F81B24D9F818
:101EC0000820D20881F81A24D9F80C20D20A81F807
:101ED0002624D9F80C20D20881F825242A6922F07A
:101EE000EF0232F47F42F9D1AE61A2E7000610168C
:101EF00000061016000000000000000001020304AC
:101F0000060708092E2E2F5372632F6D61696E2EFE
:101F1000630000002E2E2F5372632F73746D3332C3
:101F2000663778785F68616C5F6D73702E63000050
:101F3000501F00080000002014500000F4020008A8
:101F4000542B000814500020CC040000E01C0008B2
:101F50002102FF4001FF01FF01FF31144BABA9102B
:101F6000155BAEFD1F8E7243AEFF1F8E7443E220E1
:101F7000C210A98F8D1621A20121741008E8E00D6E
:101F800021D0F874290A18151521D0F6A9808D15CD
:101F9000219C16219C17219C1A21A21B23291B1A64
:101FA000211B3BA223301A3430159C3E219C381A49
:101FB00042A9FF8D01429C0B429C0C429C0D42ADFC
:101FC000104248DA08C230E2204415A209188E23D4
:101FD00043A2158E162186158E0243A9180D8D0475
:101FE00043A2FFFF8E0543A9018D364E192128FA21
:101FF0006832159C2121A21D019C222103100ECACA
:10200000D0F728FA9C02219C0321A2801EA9F08D02
:102010000421033A9C0316CAD0F1A2203909280EE4
:10202000FA9C81219C82219C8321A208806A7B13D7
:1020300085651975596539050011FF4BAB58AE72AE
:10204000438EFD1FAD74438DFF1F6B01FF01EF1029
:102050000B7818FBC238A2FF1F9A2212841008A224
:10206000FF1D9AE220A9158D2121A21394A913A086
:10207000081220DC8CA91F102A40108A08101C802E
:102080008D1520112E8E1621A210166DC00120175D
:10209000162A1016111ABC16111A031658209C0580
:1020A00021A9048D0721A90C8D0821A9148D0921CE
:1020B0009C0B21A9018D0C21A9078D2C21352A0407
:1020C000352BD095358A084B3A14167A9D16130F86
:1020D0008D1621205890A01602206790B9179020E5
:1020E0008290C05816D0F5A97F8D1A10051B0110DB
:1020F000CA1B02105E2A030A280C0410A9FF8D05D2
:1021000010A9E08D06142A07142A08052A09052AB1
:102110000A322A10052A110F2A12232A130A2A1416
:10212000372A15372F1610A9028D17142A18052AD9
:1021300019052A1A322A20052A210F2A22372A2392
:102140000A2A24372A25372A260F2A27052A28056E
:102150002A29052A2A322A30052A310F2A32372A1B
:10216000330A2A34372A35372A360F2A37052A38D0
:10217000052A39052F3A10A9208D800A1D8110A942
:1021800003052D49FF8D82962A83142A84052A850A
:10219000552A86052A870F2A8805200B8910A9331E
:1021A0008D8A10C220A212BD13A49F16247FE88A34
:1021B000C93C18D0F21113A09D2A1E103C01D0F387
:1021C0001013C89F2A10211010C201D0F2E2202063
:1021D000A0909C1640A9818D180C42C2308B48DA21
:1021E0005A0BE2205C4201FF01C8100B8E02438DA6
:1021F00004438C05439C780D43A9228D0143A9011A
:102200008D0B426017190F19197A181901FF01FF78
:1022100001FF01D31E1002100222021A34021A46D4
:10222000025BB078016AB3095BB077015BB39901D7
:102230001014B00123456776543210B3FEDCBA980F
:1022400089ABCDEFB0181C11223344556677B388A3
:1022500099AABBCCDDEEFFA9AACD4021D0FBA9BB3A
:10226000CD41073814608C4221AD4021186922D03D
:10227000011A8D41218D40211F22A01A600F1A984A
:10228000103AC8111560DAA0F23F206790682082EA
:10229000041360A5280CEBAD8310EB095DAA209018
:1022A000900D1A840D6A3D0D1A850D6A4D0D1A8028
:1022B0000D6A6C0D1A820D6A5C0D1A810D6A4C0D47
:1022C0001A880D6A2C0D1A890D6A3C0D1A860D6A42
:1022D0000C0D1A870D2A1C0D39836A8A5C02FF6077
:1022E00001FF01D31CFF01FF032113104002125014
:1022F000123E7A6302323E120C1A1C0449027A1E04
:1023000020120E121812309A7F106930120E121617
:1023100012261A661C1A060221127F12601A7E1CEF
:102320005A03202930491249101A7F0812041A084A
:102330005029026950690669107A3F4029261A2CF3
:1023400002123E124632EF127E1A31023A3E063235
:102350007E1A3D281A61621A610229304920490219
:102360002920291012341A3C043A31C08910123045
:102370003278FAFF029A810249105ABD02291021CF
:1023800012FE7A82023AFE101A800212FE1A02022D
:10239000891049022910BA0402213A3C08123C1A59
:1023A00020027A3C105A1C16213A24024916293080
:1023B000211A900212F71291129202FF9701441211
:1023C0001412151216DA1710DA1810DA1910024959
:1023D0001A7A1206890A092A10018A0A3D1B10017D
:1023E0007C0A3D121009FD8009FD8001FF01FF01FB
:1023F000CE12011202120312041205120612071263
:10240000081209120A120B120C120D120E02230FDF
:102410001211121212131214121512161217121888
:102420001219121A121B121C121D121E02351F1233
:102430002A122B122C122D122E02FF2F01421010E5
:10244000C2308B48DA5A0BE220A9808D1521A21CDC
:102450000C8E16061540A97FA0100E088E02438D23
:1024600004438C0543A9018D2E43A9188D010A0050
:1024700010FF0B42AD1042C2302B7AFA68ABE2205B
:102480004001FF01FF01C213A20222A012BD13C42A
:1024900099680B10E8C88AC906D0F3A20D133A1048
:1024A000131A11136A18133A20131A1C136A2313F0
:1024B0003A30131A27136A34133A8613100B36D0A6
:1024C000F3CBA90F8D0242AD17108D034262034872
:1024D0000B828F03EAC220AD16424A011EE2208D14
:1024E0000B10341009A28206E220A9119F100940A6
:1024F0007FC2208A38E940100CAAE220C898CD0B90
:1025000010D0E7A9E9174DC90FD0EA586A1058FA58
:10251000AF583A1B580A1492580A1D1B586A205883
:10252000FACF583A2B580A14A2580A1D2B586A3071
:1025300058FAEF583A3B580A14B2580A173B582930
:102540004D3B1A04073B3312074A52073B2D130732
:102550001B121469180CAFC0117FCFC2117FF0227B
:10256000AF0614AABF0A247FAAA92950291B591112
:102570003A13112EE220AD0310941E1A8F82427F6F
:102580000C1E290F1A8F840A5A02163A860C291635
:102590001A880A5A13163A920C29161A940A5A12D1
:1025A000163A960C29161A980A5A23163AA20C299A
:1025B000161AA40A5A22163AA60C29161AA80A5A5A
:1025C00033163AB20C29161AB40A5A32163AB60C15
:1025D000291615B8427F5C03FF247F013A12A51328
:1025E000EBAD1410EB0914AA62032D821502EA1157
:1025F0001A01113A01114A04111A02113A02113B4F
:10260000F301111A03113A03114AE2111A04113AA3
:1026100004114AD1111A05113A05114AC0111A06BE
:10262000113A06112DAF01EA60121A10123A101277
:102630004A9D231A11113A11114A8C111A12113A9A
:1026400012114A7B111A13113A13114A6A111A1402
:10265000113A14114A59111A15113A15114A481113
:102660001A16113A16115A37781A20123A20124ABD
:1026700025231A21113A21114A14111A22113A2242
:10268000114A03111A23113A231112F239111A2493
:10269000113A24114AE1111A25113A25114AD01193
:1026A0001A26113A261112BF49781A30123A3012FE
:1026B0004AAD231A31113A31114A9C111A32113A9A
:1026C00032114A8B111A33113A33114A7A111A34E2
:1026D000113A34114A69111A35113A35114A581113
:1026E0001A36113A36115A47781A86123A0C124A9B
:1026F00035231A87113A1C114A24111A8A113A6C8F
:10270000114A13111A84113A3D111A024514DAA024
:10271000F220198C4221AD4021186922D0011A8D76
:1027200041218D4021CD4021D0FBA01A680F1A987D
:10273000103AC811C90E02FF6001FF01FF01FF013D
:10274000FF01FF01FF01FF01FF01FF01FF01FF0189
:10275000FF01AD100BAD12422901D0F9C220AE1617
:102760000FAD18428D140F8A4D130F2D2E0F8D02B1
:102770000F8A072810040FE22060C220AFC0117F2B
:102780008FC2117F0823AABF5B7F4A0113290F1351
:10279000C90115F019C90215F027C90515F035C989
:1027A0000815F050C90A15F05EC90E17F079AD0290
:1027B0000FC91608D008BF021B7F8F3E194F39136F
:1027C0001A0213CA0413992612C91A040DCA062044
:1027D0001A01130A170846092020995309122D5C83
:1027E00080F001EA12C9101510F015C92A10F04145
:1027F000C95410F06DC97E10D003829619281011AB
:10280000E220AD0710C901F01AA9018D0710A25CE2
:10281000136203280882DEF0EAA24C010A2ED4F0EB
:10282000EA609C18390E1AC60E19311D1710C9021C
:10283000316C028D17312AAD312A020A2AA33129BF
:1028400018390E4A95311D2710C904316C048D27A3
:10285000312A7C312A040A2A72312918390E4A6435
:10286000311D3710C908316C088D37312A4B312A98
:10287000080A2A41312918390E1A330EC9EC180CEE
:1028800018C97B11B019C99B10B003E014AABF0C82
:1028900010097FE220E210AAEB9D6C10C21011001B
:1028A0000AFF290F4D84108D84106001E4120F126D
:1028B0001F12311A6002527012831AC7021A0702DD
:1028C000520F1A0C021A8C021A9802411A7F02291E
:1028D0002E126052C012C31A87221A1802521C12FA
:1028E000E05AF04A613A03023A06024112F012FC41
:1028F0009A0E101A3F025A3052411AC0421A61020F
:102900001A635A41123C1AFE903A83464990121CAF
:102910003A1E02523E5A31022932411AFF303A80A1
:1029200002011C52011A7E7C1A030C1AC16C12FEA1
:102930005A7CEA29EC29D012183AD80212D93A71F5
:10294000021A31241AFEA03AC05E290C121F520F3F
:102950001A30F21A3F0E1A80BC3AE0CA2924211A12
:1029600006EA5A0C021A1F0229F4290C121812380E
:102970001AF1761A7FAE1AC10229541A81025A86B8
:10298000023AC6F23A81F44934121C16E01DE012F4
:102990003349021A61021E21C6204963F412631AE8
:1029A000673019321518C324F86AF8DFD603887225
:1029B0006892127802B148123212261A2402811249
:1029C0005112D11292928C1A4502124912311202FE
:1029D00052031A1202122612E4122052C012F812E6
:1029E00080129002FF6001FF01FF01FF01FFF11360
:1029F0007F7F12018CFFE0010B8A020B9921411CA1
:102A00002003FC1D19111102FF3301FF01FF01CB4F
:102A100062082D0E10C20107312F10A8101C10C81B
:102A20000E2A0A18215C2A10CC0E1A1C0E5C3810D3
:102A3000D22A58082A10B6104610D81C1A381C5C26
:102A40005410DC0E1A460E5C6210E22A580854102C
:102A5000C4107010E81C1A621C5C7E10EC0E1A7018
:102A60000E5C8C10F22A28087E10D2109A10F80EF4
:102A70002A021829822AFC0E2A058A1AE0041C4818
:102A800003040E296E1AEE041C5803140E29521A60
:102A9000FC041C6803240E2936230A111C78033415
:102AA0000E1AA80E1A180E15C80304011B05B60E3F
:102AB0001A260E1CD803140E1AC40E1A340E1CE863
:102AC00003240E1AD20E1A420E1CF803340E296C7F
:102AD0001A500E15480404022A056C1A5E0E1C5882
:102AE00004140E296C1A6C0E1C6804240E296C2A1E
:102AF0007A701B04340E296C2A8870140404032A8B
:102B0000056C2A96701B04140E296C2AA4701B04F1
:102B1000240E296C2AB270140434032A016C411B60
:102B20004805EF2A016C411C5805020E296C411B17
:102B30006805FC2A016C413C7805086A01FF01FF29
:102B400001FF01FF01FF01FF012D02161E3201826C
:042B5000101324F446
:04000005080001F9F5
:00000001FF
